:020000040002F8
:10200000185B0020152402001D2402001F2402007A
:1020100021240200232402002524020000000000E5
:102020000000000000000000000000002724020063
:1020300029240200000000002B2402002D240200AD
:10204000F12702002F240200DD2A02002F240200C3
:102050002F2402002F240200C92502002F24020091
:102060002F2402002F2402002F2402002F2402001C
:102070002F2402002F2402002F2402002F2402000C
:102080002F240200492802002F2402002F240200DE
:10209000CD2802002F240200D12802002F240200A4
:1020A0002F2402002F2402002F2402002F240200DC
:1020B0002F2402002F240200000000000000000076
:1020C0002F2402002F2402002F2402002F240200BC
:1020D0002F2402002F2402002F2402002F240200AC
:1020E0002F2402002F2402002F24020000000000F1
:1020F000000000002F240200000000002F24020036
:1021000000000000000000000000000000000000CF
:1021100000000000000000000000000000000000BF
:1021200000000000000000000000000000000000AF
:10213000000000000000000000000000000000009F
:10214000000000000000000000000000000000008F
:10215000000000000000000000000000000000007F
:10216000000000000000000000000000000000006F
:10217000000000000000000000000000000000005F
:10218000000000000000000000000000000000004F
:10219000000000000000000000000000000000003F
:1021A000000000000000000000000000000000002F
:1021B000000000000000000000000000000000001F
:1021C000000000000000000000000000000000000F
:1021D00000000000000000000000000000000000FF
:1021E00000000000000000000000000000000000EF
:1021F00000000000000000000000000000000000DF
:10220000DFF80CD000F0A2F9004800475D4A020058
:10221000185B002030B450E8012F93B2C4892344E6
:102220008489A34228BF1B1B0489A34202BFBFF3BA
:102230002F8F002007E0C3EA020340E80134002C9E
:10224000E9D14FF001000A6030BC704750E8012F1F
:10225000C2EA024240E801210029F7D1704730B4B8
:1022600050E8022F1FFAA2F3C488A34202BFBFF3B3
:102270002F8F00200DE0C48923448489A34228BF06
:102280001B1BC2EA034340E80234002CE8D14FF0A4
:1022900001000A6030BC704750E8022FC2EA2242B7
:1022A00040E802210029F7D17047034653E8022F86
:1022B000D988B2EB324F4FF0000017BF92B241EA1B
:1022C000014142EA014104E05A68B2EB324F08BFD3
:1022D000012043E80212002AE8D1704730B40446D6
:1022E00054E8000F0D4644E80053002BF8D1156068
:1022F00030BC704730B4044654E8000F40EA010592
:1023000044E80053002BF7D1156030BC704730B45F
:10231000044654E8000F00EA010544E80053002B8E
:10232000F7D1156030BC704730B4044654E8000F54
:1023300080EA010544E80053002BF7D1156030BC5A
:10234000704730B4044654E8000F00EB010544E840
:102350000053002BF7D1156030BC704730B40446F1
:1023600054E8000FA0EB010544E80053002BF7D11F
:10237000156030BC7047000030B4044654E8000FCC
:102380000D4644E80053002BF8D1156030BC70476F
:1023900030B4044654E8000F40EA010544E8005315
:1023A000002BF7D1156030BC704730B4044654E8B8
:1023B000000F00EA010544E80053002BF7D1156037
:1023C00030BC704730B4044654E8000F80EA010581
:1023D00044E80053002BF7D1156030BC704730B48F
:1023E000044654E8000F00EB010544E80053002BBD
:1023F000F7D1156030BC704730B4044654E8000F84
:10240000A0EB010544E80053002BF7D1156030BC68
:10241000704700000648804706480047FEE7FEE791
:10242000FEE7FEE7FEE7FEE7FEE7FEE7FEE7FEE784
:10243000D5280200012202002DE9F05F05460020A8
:1024400092469B4688460646814640241BE0284625
:1024500041464746224600F068F853465A46C01A9D
:10246000914110D311461846224600F04FF82D1A1C
:1024700067EB01084F4622460120002100F046F894
:1024800017EB00094E41201EA4F10104DFDC484691
:1024900031462A464346BDE8F09F00000048704799
:1024A000507B020040EA01039B0703D009E008C902
:1024B000121F08C0042AFAD203E011F8013B00F809
:1024C000013B521EF9D27047D2B201E000F8012B55
:1024D000491EFBD270470022F6E710B513460A46A4
:1024E00004461946FFF7F0FF204610BD421C10F8C5
:1024F000011B0029FBD1801A7047034611F8012BFC
:1025000000F8012B002AF9D118467047202A04DB75
:10251000203A00FA02F1002070479140C2F12003F6
:1025200020FA03F3194390407047202A04DB203A35
:1025300021FA02F00021704721FA02F3D040C2F1E3
:10254000200291400843194670470000064C074D91
:1025500006E0E06840F0010394E807009847103473
:10256000AC42F6D3FFF750FE208202004082020008
:1025700070B58C1810F8015B15F0070301D110F845
:10258000013B2A1106D110F8012B03E010F8016B72
:1025900001F8016B5B1EF9D12B0705D40023521EF5
:1025A0000DD401F8013BFAE710F8013BCB1A921C5D
:1025B00003E013F8015B01F8015B521EF9D5A1425B
:1025C000D8D3002070BD00002DE9F04F00268FB059
:1025D000DFF8B081B14602964FF48075012437468A
:1025E0000396284603F068FB38B1D8F8040320426C
:1025F00003D0284603F056FB26432D1D64007F1CA4
:10260000ADB2082FEDD34FF4BE74204603F054FB57
:1026100048B1204603F046FB46F0004602AA0221DC
:10262000002003F029FB584C16F0FF0F15D00127AE
:10263000002537420DD008EB8501D1F81005D1F8FF
:102640001015C0F3052054F82520C1F3014102B153
:1026500090477F006D1C082DEBD3002E7DDA002003
:10266000CDF82890411E0DF1080B08AACDF82C904A
:1026700042F82010401C91460228F9D300252E462E
:10268000A01910F8607F90F9000027F0C008401CE6
:1026900049D008A9404602F022FC88B34FEA971AB5
:1026A000404601F03BFE54F820701FB1BAF1030F11
:1026B00003D00FE0BAF1030F35D10AA84FEAD802D0
:1026C00008F00703815C4FF0010C0CFA03FC41EAAF
:1026D0000C01815406A8CDF8188003F089FA0699F8
:1026E00000EB8100D0F8000702A9C0F3014006907A
:1026F000404602F0F4FB0028069802D0022802D0DF
:1027000011E003280FD1BAF1030F08D1069802286F
:1027100032D00221404603F045FA6D1CEDB217B1EC
:1027200051464046B847761C042EA9D3002D20D030
:1027300004AA0221002003F09FFA00205A4604A9AF
:1027400052F8206051F82030B34217D000200AAE72
:102750004FEA090351F8207000E00AE042F82070C7
:1027600056F8207043F82070401C0228F2D3002D48
:1027700084D10FB0BDE8F08F0321CBE7401C0228C5
:10278000DED3F6E700600040E030002000F01F02DA
:10279000012191404009800000F1E020C0F8801242
:1027A000704700F01F02012191404009800000F1B4
:1027B000E020C0F80011704700F01F020121914095
:1027C0004009800000F1E020C0F80012704749077E
:1027D000090E002806DA00F00F0000F1E02080F872
:1027E000141D704700F1E02080F8001470470000CD
:1027F0002DE9F0414FF48077384602F039FC01248E
:10280000104EA50748B1384602F039FC0120C5F842
:1028100008037470002001F089FD4FF48277384678
:1028200002F026FC00280BD0384602F028FC0220DB
:10283000C5F80803B470BDE8F041012001F076BD91
:10284000BDE8F081CC30002007480021C0F84011DD
:10285000C0F84411C0F84811C0F84C11C0F800117C
:10286000C0F8041104F07EBC0010014000F044B92F
:1028700070B50E46144900EB400001EBC00514464C
:10288000E86A183520B101280FD0022805D113E0DD
:10289000284600F065F9A04201D2002411E022464A
:1028A0003146284600F094F90BE0284600F058F92C
:1028B000A042F4D20446F2E73146284600F05BF924
:1028C0000446204670BD00009038002004F098BBFC
:1028D00003F0D6BE30B54FF080500022D0F8301152
:1028E0000123082902D1D0F8344114B1082909D0B4
:1028F0000BE04FF08041C1F80C21C1F8102168496C
:102900000A6005E0D0F8344114B1082957D059E0E5
:1029100064490968644C21606249091D0968241DE5
:102920002160604908310968241D21605D490C312E
:102930000968241D21605B4910310968241D21604C
:10294000584914310968241D216056491831096815
:10295000554C2034216053491C310968241D2160E5
:10296000504920310968241D21604E4924310968ED
:10297000241D21604B4928310968241D21604949E3
:102980002C310968241D2160464930310968464CC4
:1029900040342160434934310968241D2160414994
:1029A00038310968241D21603E493C310968241DE5
:1029B00021603C4940310968241D216005E0D0F8C0
:1029C000344114B1082904D006E0394C374921605C
:1029D00005E0D0F8344114B1082904D006E0354CA4
:1029E000FB21216005E0D0F8344114B1082908D05A
:1029F0000AE090F858423048016864F3030101602E
:102A000005E0D0F8344114B1082905D00EE02B4977
:102A10004FF40070086002E0D0F8340130B9284863
:102A20000168C90702D06FF0010101602548016803
:102A300041F470010160BFF34F8FBFF36F8F4FF010
:102A40001021D1F80002002803DBD1F8040200288D
:102A500022DA1D4C23601D480368002BFCD0122392
:102A6000C1F800320568002DFCD0C1F804320168BD
:102A70000029FCD0226001680029FCD0BFF34F8FF1
:102A800010487C380168124A01F4E061114301608A
:102A9000BFF34F8F00BFFDE70F490E48086030BD00
:102AA000380500400404001020C5004048810300A0
:102AB0008C56004018F50040E40E0040409602405D
:102AC0000004004088ED00E004E5014000E401401E
:102AD0000400FA050090D003E02A00200448017F9A
:102AE00004480029024901D004F017BD04F086BC57
:102AF000483100200020004010B5124C0220206117
:102B0000606111A0A06104F17800E0614FF40070F1
:102B100020620020A06260620BA1A164E06204F563
:102B20001E71E1641021A065C4E91410E06509A1DB
:102B3000E01DFFF7E2FC08A12046FFF7DEFC2020A5
:102B4000A07110BD903800205465726D696E616C83
:102B500000000000525454005345474745520000BE
:102B60000269C1688A4203D88068401A104400E0B4
:102B7000501A401E70472DE9F047C4681746894631
:102B800006464FF000083069A04201D9051B02E05B
:102B9000B168201A0D1AB0686D1E001BA84200D83B
:102BA0000546BD4200D33D4670682A46204449464A
:102BB000FFF778FCB0687F1B2C44A844A944A042CE
:102BC00000D10024F460002FDDD14046BDE8F0873D
:102BD0002DE9F04104468846D4E90207C51BE168A7
:102BE000606816460844B54206D94146FFF75AFCCC
:102BF000B819E060BDE8F0812A464146FFF752FC73
:102C0000761B08EB050132466068FFF74BFCE66077
:102C1000F0E70000014A024900F026B8E945020049
:102C2000842A002002E008C8121F08C1002AFAD135
:102C300070477047002001E001C1121F002AFBD13C
:102C4000704700000121202803DA81400548014037
:102C500003E0402802DA2038814009B101207047A2
:102C600000207047FC06FFBD2DE9F04116460F46D7
:102C70000446002503E03946B047641C6D1C2078EB
:102C80000028F8D12846BDE8F08110B501220221C4
:102C9000002001F065F908B1072810D107220221B0
:102CA000012001F05DF908B1072808D100210A22AE
:102CB000084601F055F908B1072800D1002010BDE1
:102CC000022001F03DB8000070B50024064D06E07A
:102CD0006868012110F8340002F07AFA641C287840
:102CE0008442F5D3002070BD442A0020F8B5154673
:102CF0000C460646052A01D20720F8BD02F04AFB21
:102D000018B902F019FB0028F7D1104900204E60D5
:102D10000C70C1E902500E4D08610DE006EBC400D5
:102D20006968009181788DF801100078094A694638
:102D300002F09AFA0028E0D1641EE4B2EED2BDE8B7
:102D4000F840054A0021024800F078B8442A0020E3
:102D5000BC7802007D460200D544020003F024FA4C
:102D600003F07AF80028FBD1104C0121208801EBF8
:102D700000400FA103F068F910480068C00700D0B8
:102D800000BE2088022101EB00400DA103F05CF998
:102D9000BFF34F8F0948E43801680D4A01F4E06140
:102DA00011430160BFF34F8F00BFFDE72C2B0020C4
:102DB000466174616C206572726F7200F0ED00E024
:102DC00053797374656D207265736574000000003B
:102DD0000400FA050EB500210091CDE901106A4604
:102DE00044F20100FFF7BAFF0EBD10B58268C36858
:102DF000934203D001F0E5FB002010BD052010BD7B
:102E000029B112B1531E134203D0092070470E207E
:102E100070470160838000218160C160084670476F
:102E200010B58268C3689A1A83889A4203D801F061
:102E3000D2FB002010BD042010BD0000074B9B7882
:102E400023B12AB120B10068037C1BB10820704770
:102E5000072070474174426100207047883100208C
:102E600070B503F05BFE104800240B210470447021
:102E70000E4D817014206C602C706C70FFF786FC16
:102E800007211420FFF7A3FC1420FFF78AFC084851
:102E9000046007211120FFF79AFC0548001F006815
:102EA000A860002070BD000088310020582A002052
:102EB000081501402DE9FC47DFF8789099F80230B9
:102EC00073B368B3052902D20720BDE8FC874369C4
:102ED00033B3437C012B25D00027044600258846C8
:102EE00016468DF80050684600F0CAF801A804F0B4
:102EF0001FFCC8B1012101700F4944600968C0E995
:102F00000218C0E904769DF8040089F801009DF8D4
:102F1000000000F0D9F81420FFF74EFC2846D4E753
:102F20000820D2E70F46D8E704259DF8000000F0FE
:102F3000CBF8F3E788310020041501400649897871
:102F400039B130B1416921B100210174022104F08D
:102F5000E5B80820704700008831002070B50A4E9F
:102F600001460A48B578FFF740FF04464DB10020FE
:102F7000B070711C0122C81D02F052FA08B1FFF7AF
:102F800029FF204670BD00006C2A002094320020EA
:102F9000F0B5284E89B01F460D00044672603BD044
:102FA000A888296882B22448FFF72AFF002834D174
:102FB000A889A96882B220481030FFF721FF0028B5
:102FC0002BD120221D496846FFF76CFA60690690F4
:102FD000207C00B101208DF814008DF81C70607CFD
:102FE00000B10E208DF81500E0680290A0680390F3
:102FF00020680190606800900E48114A69460830C8
:1030000002F0DAF9002808D1B0702068401C04D022
:103010009DF81D0018B106E0072009B0F0BD054875
:10302000083002F055FA03490122491CC81D02F07C
:10303000F7F9F2E76C2A002094320020C4780200ED
:103040005D73020010B501460B48FFF7E9FE04006E
:1030500010D10A4802F086FB60B9084906480839D1
:10306000FFF7C3FE30B9054901220839034802F0D1
:10307000F3FA0446204610BDA4320020742A002032
:1030800030B5EFF3108172B60D4A9468012324B174
:103090000370002900D162B630BD93604FF0E02389
:1030A000D3F88051074C25401560C3F88041D3F810
:1030B000844154605A17C3F8842100220270E8E763
:1030C000B4320020FC06FFBD0B498A68002A11D0EB
:1030D00000280FD1EFF3108072B60B684FF0E0229A
:1030E000C2F800314B68C2F8043100228A6000281F
:1030F00000D162B670470000B432002070B50546BA
:1031000008680C46411C04D002F099FD206802F0CA
:1031100025FD6068411C02D0002102F016FD2879CF
:103120001F4901EB40102968007F0028A069C1F801
:10313000240523D0607D227D29681043C1F86C05E9
:10314000D4E900122868C0F80C15C0F8142522E054
:10315000A068411C02D0002102F0F7FCE068411C8D
:1031600004D002F06CFDE06802F0F8FCD4E9021231
:103170002868C0F80825C0F8101570BD607D217D55
:103180002A680843C2F86C05D4E900122868C0F820
:103190001425C0F80C15207D0128D9D070BD000081
:1031A000483100202DE9FC47002517880646158088
:1031B00090F82D001446894630B13A4621464846DB
:1031C00000F008FB050009D1B0784FF00C0A18B3E5
:1031D0002088C846001DB84202D95046BDE8FC8789
:1031E000684679DF0028F9D12088032108F800100B
:1031F00020881921401C80B2208008F80010208807
:10320000401C80B2208000EB0801BDF8000004F0F3
:10321000FCF9218808442080F0780222C8B1218876
:1032200096F9033001F1030C4846BC45D5D8425409
:1032300021884FF0010C491C89B2218000F801C09F
:103240002188491C89B2218009F801302088401C5E
:1032500020807068B8B1218890F9003001F1030C2A
:103260004846BC45B9D8425421880A22491C89B233
:10327000218042542188491C89B2218009F80130FB
:103280002088401C2080308950B1CDE900474B4652
:103290000622022106F1080004F062FA05009DD121
:1032A000308A50B1CDE900474B460722032106F191
:1032B000100004F055FA050090D1308B50B1CDE9E3
:1032C00000474B461522142106F1180004F048FA75
:1032D000050083D1306A30B13B462246494601F0B1
:1032E0008FF80500DBD1706A30B13B462246494673
:1032F00001F0B0FC0500D2D196F82C0038B13B4665
:1033000022464946304603F08BFD0500C7D1307890
:1033100038B13B4622464946304601F023FD0500C0
:10332000BDD128465AE7F0B50C4693B01F210726B9
:10333000ADF80010ADF80410002750B1C17849076E
:103340000DD56A4602A9FFF72DFF002808D102AD6E
:1033500002E00025ADF800706CB1E07810B13046A5
:1033600013B0F0BD01AA0AA92046FFF71BFF0028F1
:10337000F6D10AAA02E00022ADF80470BDF80400FC
:10338000C3B2BDF80000C1B2284672DFE8E780F89A
:103390002410704770B50D00044653D0F4B30120DB
:1033A00020700026E670202205F17801201DFFF72D
:1033B00079F884F82460D5F89800C4F8CC00D5F8E2
:1033C0009C00C4F8D0004FF6FF70A4F8C800C4F801
:1033D0002560A4F8296084F82B6004F130003C21BA
:1033E0000646FFF778F8287884F83000A87884F843
:1033F0003200E87884F83300687884F83100D5E941
:103400000401C4E91001D5E90201C4E90E01D5E9BE
:103410000601C4E9120195F82D0000E012E084F8DD
:103420005D00686AD8B104F1780104F16C0061674D
:103430006065696A09880180686A616D8088888032
:10344000002008E00E2070BD696A22188968095CB6
:1034500082F87810401C616D89888142F4D8A86A8E
:10346000E8B104F1A400C4F8A0000C38A065A96A72
:1034700089888180A86AA16D00880880002006E004
:10348000A96A22188968095C82F8A410401CA16D01
:1034900089888142F4D895F82C0084F85C00286A69
:1034A00048B104F1C4002065296A49884180286A2E
:1034B000216D00880880686800B1606305F13C01F7
:1034C0003046BDE87040FFF72EBF10B50288102AC5
:1034D0001AD0112A1FD01B2A1CD1007A0C460028B2
:1034E00018D1E0780521401CB0FBF1F201FB12017C
:1034F000204600F055F800280CD0D4F8D010002950
:1035000008D0BDE810400847C27B012A02D180885C
:10351000A1F8C80010BD0C46002184F8D4108088A2
:10352000B4F8C8108842F5D120790028F2D10121E1
:10353000DEE710B50C46022801D0032811D16078CF
:1035400000280ED000206070E178204600F028F8B6
:10355000002806D0D4F8D010002902D0BDE81040D1
:10356000084710BD10B5044674DF012084F8D4006C
:10357000002084F8D600062084F83300002104F1EE
:103580003000FFF7D0FE002809D1E178204600F096
:1035900007F818B1D4F8D01001B18847002010BD49
:1035A0002DE9FF47044600780F4638B1E770002048
:1035B00002F0EAF9012628B16670D2E0082004B0D2
:1035C000BDE8F0870025C4F82550A4F8295084F8F8
:1035D0002B50A07910B1E078012806D0E07970B1C5
:1035E000E078012801D0022809D1D4F8CC1021B10B
:1035F00084F82C600820884701E084F82C5004F1FE
:10360000260100200A5C0AB1304603E0401C06286F
:10361000F8D300204FF002084FF0030A4FF00409DE
:10362000012F06D0022F09D0032F0CD0042F12D166
:103630000DE0A17911B108B130460DE0E17911B189
:1036400008B1404608E0207A08B1504604E0607AAC
:1036500008B1484600E02846E070D4F8CC1041B1EB
:10366000032801D0042804D1607910B194F8D40063
:10367000A8B184F8D55000950295019503958DF871
:1036800000508DF80850E17804F1250004F1300273
:10369000052958D2DFE801F0670A131F3B0084F8C0
:1036A000D65084F8D56007208847E4E7A6700190DB
:1036B0008DF80060ADF80C50ADF80A5043E084F886
:1036C000028001908DF80060208AADF80C00A0897E
:1036D000ADF80A0037E0A08AADF80A00208BADF8FB
:1036E0000C00607980B194F8D40068B994F8D600E1
:1036F00050B18DF8088084F8339000211046FFF710
:1037000012FE00BB05211AE084F802A01BE0A08B8A
:10371000ADF80A00208CADF80C00607988B194F8FF
:10372000D40070B994F8D60058B18DF8088084F8A8
:10373000339000211046FFF7F6FD20B90621A17055
:1037400001E084F80290E07830B194F824106846E3
:1037500073DF00287FF433AFD4F8CC1009B1A07820
:10376000884700202BE7A570F6E7000070B504003D
:1037700012D001461C221448FEF794FE1248134D45
:103780000560206850B17ADF002806D12068016802
:1037900029604068686005E00E2070BD0B487BDF43
:1037A0000028FAD108484FF6FF711438084A20F86B
:1037B000041B0549343901600021FFF73FFB002855
:1037C000EBD0032070BD0000F82F00203C2A002021
:1037D000C97602007CB5054608880C46093090423F
:1037E00001D90C207CBD68466DDF0028FAD1218804
:1037F0000820685420881B21401C80B22080295456
:103800002088401C80B220802844DDF8011001602F
:10381000BDF8051081802088801D80B220809DF831
:103820000010490800D0012129542088401C208024
:1038300000207CBD70B53E4D018888B06E8804467E
:10384000222932D012DC01294BD03A480322102918
:10385000008802EB004015D0112920D013291CD17B
:1038600000231A46852130467FDF2FE03B2934D0E4
:1038700051293AD0522924D056290ED180881321BB
:1038800076DF23E02CA102F0DFFB072000F08AFBAB
:1038900008B1FFF79FFAA088688008B070BD29A121
:1038A00002F0D2FB4FF6FF70F6E700200090019087
:1038B000A0880022694690DF35E000BFFFF78AFA52
:1038C000EBE700231A4619463046A9DF0028E4D06A
:1038D00008B0BDE87040FFF77DBA8088132176DF1D
:1038E000F4E78088002166DFF0E71022A11D04A81C
:1038F000FEF7D8FD9DF810100029CED09DF81800D5
:10390000042803D0062801D00528C6D102290DD0ED
:103910005FF001008DF800004FF4C170ADF80400B5
:10392000A0886946A8DF0028C8D1B6E70220F1E7E1
:10393000182A00202C2B0020436F6E6E656374657F
:1039400064000000446973636F6E6E656374656440
:103950000000000010B51A4C0188606810290ED0D4
:1039600011292BD1401E606028D1FFF78EF9002865
:1039700024D02168002921D0BDE810400847D0B9E3
:1039800000210122084600F0EBFA08B107280FD108
:1039900007220221012000F0E3FA08B1072807D12D
:1039A00004220221002000F0DBFA20B1072802D017
:1039B000216801B188476068401C606010BD00004C
:1039C000342A00202DE9F04701883B4E40F2F319DC
:1039D0004FF6FF7510291BD011293ED0122954D063
:1039E000502946D1C188F289841D914241D1618913
:1039F00002293ED18688304600F06CFE050038D0A2
:103A000004F10C0000F07EF9A8B3294630464EE0E0
:103A1000C17B8788044601292BD1A846284600F09F
:103A200059FE050017D02F800020287223484346F6
:103A30004A460168C5F80A104068C5F80E0004F14E
:103A4000100105F10A0000F0DFFE6872F08900281D
:103A50000FD129462AE0042013E0808800F03AFEC6
:103A6000040006D06068FFF769FA08B103F0BAF9FC
:103A70002580BDE8F087FFE76868FFF75FFA002858
:103A8000F7D0BDE8F04703F0ADB987880646384661
:103A900000F020FE0400ECD02B464A4606F1080157
:103AA00004F10A0000F0B0FE607221463846BDE81D
:103AB000F04700F0EBBC0000F82F00203C2A00206B
:103AC0002DE9F047044603883F480122A4B000F1E5
:103AD000480A102B09D0112B54D01A2B70D1217AFF
:103AE000B2EB111F53D2012352E0D0E911218A43D6
:103AF0000546011D12A803F048F9442212A901A8A5
:103B0000FEF7D0FCDFF8C0900026374609F14409E3
:103B10000DF104080AE000BF08EB46001D2283886F
:103B20004946281D009703F0F5F8761C0198B0422D
:103B3000F2D8686CA688C04303F00EF9A0F57F4167
:103B4000FF3917D005EB40000123868032465146ED
:103B5000281D03F03FF9012332464946281D03F092
:103B600039F9E07B02280BD000231749A2884C3199
:103B7000281D20E024B00420BDE8F047FFF72AB953
:103B80000123F2E70023A2885146001D13E0002321
:103B90000D490546A2885031001D03F01BF9207A1B
:103BA0000221B1EB101F01D2012300E000230649DE
:103BB000A2885431281D24B0BDE8F04703F00AB9AB
:103BC00024B0BDE8F08700001430002030B5174B5A
:103BD0000D4604000FCB85B08DE80F0023D015B340
:103BE0004FF6FF70A0822868A0610020A0752146D2
:103BF000684662DF002814D120788DF81200012079
:103C0000ADF81000A21C04A9A0DF002809D12946A4
:103C1000204602F0BAFF002803D12946204603F0CF
:103C2000EBFA05B030BD0E20FBE70000A4780200DF
:103C30007FB5002917D0002815D00288102A0DD092
:103C4000112A0DD0502A0FD0572A0CD11A4B1868C0
:103C5000D3E902238DE80F0089692AE0808801E01A
:103C60004FF6FF7088827FBD01910C46821DC3888C
:103C70000989002512308B4202D1518902290CD0CA
:103C8000A1898B42EFD1A1690029ECD00290508923
:103C9000ADF80C008DF800500AE000F033F818B1D0
:103CA0000120A075022001E0A57503208DF8000019
:103CB000A169684688477FBD947802001FB560B14E
:103CC000838AA3F57F44FF3C09D0837D3BB11388F1
:103CD000F42B06D9072004B010BD0E20FBE7082006
:103CE000F9E7002300930193029303938388CDE9BE
:103CF0000221ADF8003001218DF80210808A69465A
:103D0000A6DFE8E7007800F0010070470149085C91
:103D1000704700004C780200084908B5085C009024
:103D2000684601F057FFD0F810050099C84010F020
:103D3000010000D0012080F0010008BD4C78020095
:103D4000094908B5085C0090684601F043FFD0F8C7
:103D50000425009B0121994021EA0203C0F808359F
:103D60001140C0F80C1508BD487802000249085CF3
:103D7000012101F06EBF0000487802000249085C92
:103D8000002101F066BF000048780200084908B52C
:103D9000085C0090684601F01DFFD0F8040500990A
:103DA000C84010F0010000D0012080F0010008BDE3
:103DB000487802007CB50024084E25460122305D7B
:103DC000009500231146019501F074FE641C042C3B
:103DD000F4D3BDE87C4000F003B80000487802004E
:103DE00010B500242046FFF7C1FF641C042CF9D352
:103DF00010BD10B500242046FFF7C0FF641C042C42
:103E0000F9D310BD10B50246064B4FF0FF3000212C
:103E10005C5C944201D1084610BD491C0429F7D3CB
:103E200010BD00004C78020070B50C4E0C004FF035
:103E3000000530600BD0012000F06AF808B10220C4
:103E400004E0002000F064F800B10B2020707068DE
:103E500010B9FEF71AFF0546284670BD342A002027
:103E600010B5002000F0D0F908B1062806D10120D5
:103E700000F0CAF908B1062800D1002010BD0000EA
:103E80002DE9F0470D468146FFF7BCFF04460428A4
:103E900036D2DFF874801B481C4EA8F10C0725B3FE
:103EA000012D0ED0022D2BD104EB44003044457877
:103EB000002D25D0B968002922D02846BDE8F0475A
:103EC000084704EB4401755C0E44717849B10E4A11
:103ED0004FF40041093A8068FEF7ECFF08B987F813
:103EE0000390B17808F80410E2E78068FFF726F83D
:103EF00004EB4401314418F804008D78A842D7D06F
:103F0000BDE8F08750780200302A0020982F00206A
:103F1000FFF702BF0146104810B54088042907D0BA
:103F200007290ED00A2915D1BDE8104002F0BCBF08
:103F3000132176DF0CE000280CD0BDE81040FEF71E
:103F400049BFA0F57F41FF3904D10448FFF70AFBC0
:103F50000828F0D110BD0000182A0020802E002073
:103F600070B50023042810D20D4D00EB4004012A47
:103F700002D101290CD00022094E00EB4000304450
:103F800061B1012906D0022906D00723184670BD69
:103F90000E30C2B22A55F9E74270F7E78270F5E7B2
:103FA000982F0020044A014600201279D20702D03F
:103FB000084600F04DB87047242A002070B5064628
:103FC0001E480024C0E90161B00720D50025012268
:103FD00011462846FFF7C4FF6D1C0446042D02D28B
:103FE000002CF4D013E094B940F266620421144826
:103FF000FEF77CFE04000AD1FEF766FE040006D13F
:104000000F48104A0021001FFEF718FF0446F00772
:1040100001D0FFF7CFFE74B909480B4A00210C38D4
:10402000FEF70CFF040006D10548084A01210838B4
:10403000FEF704FF0446204670BD0000242A00203D
:104040005C780200B14202007D480200C12C0200EF
:104050002DE9F05F6A4C054600266078B34618B13A
:1040600084F801B000F0F2FB664F4FF47A694FF428
:10407000C87A4FF00108182D62D2DFE805F0AC0CC9
:104080000C31404D62676B746B74BE7D7D7D7D7DB0
:10409000ACAFB2B5BEBE0020FFF778FE00284FF0EF
:1040A000000008D0FFF762FE022D02D14FF4E1605C
:1040B00008E0484606E0FFF761FE022D01D1C82066
:1040C00000E05046410CC0034FF4FA72801841F1F1
:1040D0000001257052000023FEF7AEF901462AE0E8
:1040E0000020FFF753FE00284FF0000004D0FFF738
:1040F0003DFE4FF44870E5E7FFF740FEDFE70020A4
:10410000FFF744FE00284FF0000002D0FFF72EFE1C
:10411000CFE7FFF733FED4E70020FFF737FE002894
:104120004FF0000002D0FFF721FE01E0FFF726FE6E
:10413000257041F69A1100223868FEF7BBFE06464C
:1041400046E00020FFF7FCFD257008E0002051E06C
:1041500025703DE084F801800120FFF7F1FD002289
:1041600040F6CD41E8E784F801800120FFF7E8FD43
:1041700000224FF48041DFE77868FEF7DFFE064655
:10418000D5F1110000D02EB10220FFF7EFFD84F829
:1041900002B01DE0012816D980B2C8214843C117DA
:1041A000C90341EA5041C0034FF4FA72801841F14B
:1041B000000152000023FEF73FF901460022786813
:1041C000FEF778FE06460220FFF7D8FD84F802804D
:1041D0003046BDE8F09F00F039FBB9E700F036FB50
:1041E000B4E700F033FB04E000F030FB0020FFF701
:1041F000C5FD0120FFF7C2FDAAE7FFF7FAFDA7E71B
:10420000242A00205078020010B5FFF77FFD03211B
:1042100001F0AEFC002010BDF8B5871C00208DF821
:1042200000000E4601256846FEF72AFF124C206862
:104230003060D4E90001401AA168091ABE1C06E0EA
:1042400000F0C2FBD4E90001401AA168091A491C18
:104250008E42F5D8A1682068084004EB8000C16850
:1042600041F00301C1602068384420609DF80000DF
:10427000FEF72AFF2846F8BD7034002030B482686B
:104280000468531C8360A154D0E901128A4202D30E
:1042900030BC01F080BA30BC70470000034803C84E
:1042A000814201D101207047002070477034002006
:1042B00000780221FFF7E4BD05494FF0FF320828DE
:1042C00041F8202002D3084480F8582070470000AD
:1042D000E0300020F0B54FF0FF3512B10023082682
:1042E00001E008230C260C4C05E000BF54F82370B5
:1042F0007F1C04D05B1CB342F8D32846F0BD2618BF
:104300005DB286F8305044F82310002AF5D1E11848
:1043100081F85800F1E70000E0300020024908442D
:1043200090F9300070470000E030002070B5084C74
:10433000050009D010342168002907D008682060E2
:10434000496828468847F6E70834F4E770BD00005E
:10435000CC3000202DE9F05F26484168F1B3DFF84A
:1043600098B00E688146DBF8004087688078E11BD2
:1043700021F07F45ED1CB0B9DFF880804FF480302C
:10438000C8F84403C8F804031120FEF7FFF9112010
:10439000FEF707FA4FF0010AC8F800A02F2000F03E
:1043A00077FE89F802A0B54200D23546124BE819D3
:1043B0003C3320F07F401860DBF800105A46091BA0
:1043C00021F07F41001B20F07F40C91C81420FD9A2
:1043D000106818602F2000F05BFE00E004E0BDE8EC
:1043E000F05F1120FEF7E8B9BDE8F05F02F096BB80
:1043F000BDE8F09F582A002004150140001001403C
:104400002DE9F04117880646B81D14460D4698421E
:1044100002D90C20BDE8F0813188072206290AD391
:104420004FF4486C4FF6FF73614501D9994202D1B0
:104430007088062801D21046ECE7604501D9984201
:10444000F9D1994203D0984201D08142F3D8052096
:10445000E85520881221401C80B2208029542088F1
:10446000401C80B220804119308803F0CEF82188AA
:10447000084480B220804119708803F0C6F8218872
:10448000084420800020C5E7FEF7A4BC38B54A7A6E
:104490000F4B62B100220A725969002906D001222D
:1044A0008DF80020ADF802006846884738BD0A7ACA
:1044B00062B19B684C68024619462046FEF7FAFC3A
:1044C0000028F3D0BDE8384002F08CBC5B68F1E70F
:1044D000F82F00202DE9F04100260125144C22E0A0
:1044E0006068226900EBC607387805FA00F11142CE
:1044F00017D08A43226100F017FF02463878E3683C
:1045000005FA00F1194002FA00F3994209D17978CD
:10451000012901D0012100E0002151407A6802B157
:104520009047761CF6B220788642D9D3BDE8F08158
:10453000442A00200E4910B50A784C780023A24284
:1045400012D0521CD2B20A70022A00D10B70084A53
:104550000B780C3252F8232002608868104420F057
:104560007F408860012010BD0360002010BD000066
:10457000582A002030B50446006885B00D46806892
:1045800000281CD014216846FDF7A5FF0195A068FE
:104590000490207910B101280DD104E001208DF89C
:1045A0000000206904E002208DF80000E0680003AC
:1045B000029060690390206881686846884705B06A
:1045C00030BD826883881A4003689A5C0A708168EB
:1045D000491C81607047C26883881A4003689954F7
:1045E000C168491CC160704710B50446C0B2FEF7EF
:1045F00029FD204610BD00000B484A8843889A4296
:1046000011D10A88A2F52063773B0CD18988C91E95
:104610008AB28280054803211346008801EB0040DE
:1046200003A101F01CBD7047182A00202C2B00208C
:1046300044617461206C656E206973207365742019
:10464000746F2030782558282564290010B5094951
:10465000094800F058FC08B1FEF7BCFB40210648B1
:1046600000F045FC002803D0BDE81040FEF7B2BBC7
:1046700010BD0000F94502006C2E00202DE9F0412C
:10468000124E07460125BD403068FEF757FC002852
:104690000DD10F4C2069284207D1384600F044FE66
:1046A0000028E06805D0284304E0A8432061BDE865
:1046B000F081A843E060206928432061A168306848
:1046C000BDE8F0410022FEF7F5BB0000BC78020017
:1046D000442A00200146034802888A4200D0002074
:1046E00070470000E42F00202DE9FC5F0E00834698
:1046F000DDE90C47C6F1000098469246814600D499
:104700000846012503E000BF90FBFAF06D1C504500
:10471000FADAA84500D9454624B1002E01DB780716
:1047200000D5641EB80702D5B8F1000F0AD0F8070B
:1047300008D13CB1A54205D220215846641EFFF79E
:104740009DFDF6E7002E02DA4E462D2102E07807A5
:1047500003D52B215846FFF791FD07F003000228EF
:104760000BD1B8F1000F08D13CB1A54205D23021E0
:104770005846641EFFF782FDF6E7CDE90047434641
:1047800052463146584602F045FFBDE8FC9F000006
:1047900070B50E460446007918494FF4A27501EB36
:1047A0004010017F2068A1B14FF4887102F010F829
:1047B0004FF49071206802F00BF84FF4927120686A
:1047C00002F006F82946206802F002F80C49206839
:1047D00009E04FF48E7101F0EAFF2946206801F0EC
:1047E000E6FF08492068C0F80413206800F0ECFCDC
:1047F0003146BDE8704000F0CBBC000048310020DD
:104800001003020080000200F0B58488A5189442CD
:1048100000D82246A41AC288D6189A4200D8134655
:10482000D21A4B880788BB420CD34088834209D8F0
:104830008888A04206D3A84204D8C888904201D3F1
:10484000B04201D90020F0BD0120F0BD0A4810B5EA
:10485000807860B1002401E0022C06D02046FFF7EA
:1048600085FA641C042CF7D310BD0324F6E7BDE8D9
:104870001040FFF7B5BA0000242A00200348017950
:10488000C90702D00078FFF7E3BB7047242A002055
:1048900006490120086006480168C1F3004100296B
:1048A000FAD1044900208870704700000C000040D5
:1048B00018040040CC300020F721018017214180EE
:1048C000002101714171FB2181711B21C171704770
:1048D0002DE9F047394E002780463D46DFF8E0904D
:1048E000D6F804A057E003D00446D0F81C8035E089
:1048F00099F8002002EB4201521CD2B289F8002044
:1049000009EBC10199F80230091D9A4201D189F8D9
:10491000005048680A780446012A12D0022A02D0C0
:10492000032A3BD108E002F0C9FB00B1012725743E
:1049300034E00574C06900E070680028F9D1706047
:104940002CE0207C50BB88686060C868A060086963
:10495000E0604869A061F07800B165606268B168A4
:10496000184B501A20F07F40984202D2A1680844A8
:1049700006E0881AA16820F07F40814202D9081A17
:10498000206000E0256065600120A560207420465D
:10499000E56102F075FBB8F10000A4D199F80010B0
:1049A00099F801008142A3D117B97168514502D02D
:1049B0000120BDE8F0870020FBE70000582A002016
:1049C00088310020FFFF7F0070B588B0214800F0DB
:1049D0002DFA2048001F064600F028FA1E4DD5E9A2
:1049E000014105E0C0F3891202EB9050641C0444BD
:1049F00004EA010005EB8000C0688207F2D00020C5
:104A00000DF1080204EA010305EB8303641CDB6873
:104A100042F82030401C0228F4D3029800F0030032
:104A2000012808D002280AD10298032101EB9050F6
:104A300004EB900403E00298C0F383100444304672
:104A4000002101AAFDF7B1FC002800D06C6008B07D
:104A500070BD00008838002070340020A8B0FEF738
:104A6000FFF908B1FEF7B6F9182264496846FDF768
:104A700019FD6348069063494FF48070CDE9070142
:104A800009900723604A06A96846FEF781FA08B133
:104A9000FEF7A0F9002001F041FB08B1FEF79AF9FA
:104AA00001F0CCF959490320FFF788FA08B1FEF765
:104AB00091F969460020FFF7B7F908B1FEF78AF9C6
:104AC00001F0B6FD08B1FEF785F900246946012022
:104AD000009401F051FC08B1FEF77CF9684601F042
:104AE000F5FC08B1FEF776F99DF8080048A120F022
:104AF0000F00401C20F0F00010308DF808000B2251
:104B000002A87CDF08B1FEF765F900941020ADF82B
:104B100000003C200194ADF80200ADF804404FF4D1
:104B2000C870ADF8060068467ADF08B1FEF752F9A2
:104B3000FFF78CFD3948009069463948FFF746F881
:104B400008B1FEF747F9A0216846FDF7C4FC022032
:104B50008DF800008DF8024005208DF8030001203B
:104B6000ADF84C008DF87C0040202E492290149125
:104B7000B42023902C482690294869463030FEF70F
:104B800009FC08B1FEF726F9254801213030FEF76F
:104B9000FEFB1C216846FDF79EFC4FF42030CDE95A
:104BA00000404FF4702002902048059003252048D3
:104BB0008DF80C500690ADF80E408DF81040684608
:104BC000FEF7D4FD08B1FEF705F91AA0FEF722F8AA
:104BD0001C481DA1008805EB004001F035FA104883
:104BE00003213030FEF7DCFC03E000BF01F034F9B4
:104BF0003EDF0028FAD0FEF7EDF8F7E73078020044
:104C0000502C0020502D0020F1720200153F0200B0
:104C10004E6F726469635F5541525400DD67020054
:104C2000502E00201E2A00206D68020091680200AC
:104C3000894402000D0A5541525420537461727424
:104C4000210D0A002C2B0020554152542053746131
:104C50007274210070B5144682880E46054620887D
:104C6000111D0144921C994201D8FE2A01D90C2041
:104C700070BD521C32542088FF21401C80B220801D
:104C800031542088401C80B220808119288802F08D
:104C9000BCFC2188084480B22080AA8842B1A9685F
:104CA00041B13044FDF7FEFB2088A98808442080EC
:104CB000002070BD072070BD2DE9F047C78804466D
:104CC000181D16468946B0FBF7F1B0FBF7F207FB5B
:104CD00012009A193A44D21CB2FBF7F2DDF820A078
:104CE00001E02468491E0029FBD13D1A8846B542DF
:104CF00016D818E0BAF1000F05D0211809EB08000A
:104D00002A46091D04E0204409EB08012A46001D3B
:104D1000FDF7C8FB00202468761BA844B74201D9E0
:104D2000354600E03D46002EE4D1BDE8F0870000A6
:104D300030B5024669B101F01FFA0021084C0BE0C2
:104D400001EB410304EB830315685B88AB4202D19E
:104D50001160002030BD491C8142F1D3052030BDD7
:104D6000E42A0020F8B50E460178144605460129CC
:104D700001D1687830B12088821C9A422DD801294F
:104D800002D006E00720F8BD69780144891C9942E9
:104D900023D8181A801E87B2ADF800702188B01C85
:104DA000084469467DDF0028EDD12878022805D126
:104DB000BDF80010B94201D809210AE008210128F4
:104DC00005D16878B84202D8ADF8000001E0ADF82E
:104DD0000070BDF80000FE2801D90C20F8BD228823
:104DE000401CB0542088401C80B220803154208860
:104DF000401C2080BDF80010084420800020F8BD31
:104E000010B50A8849888A4203D1FDF745FA012086
:104E100010BD002010BD70B50C460546FDF71FFA09
:104E2000002802D061882868084470BD08B50121B7
:104E30006A46FDF7ADFA009808BD38B5044600256E
:104E40008DF800506846FEF71BF921686268086813
:104E500090420ED9401E08600178238AE26801FB67
:104E60000325227A2168101AC0B20A79824200D240
:104E700008719DF80000FEF727F9284638BD38B5BF
:104E8000054600208DF800000C466846FEF7F8F84D
:104E9000E868298A201AB0FBF1F12A681068431CDF
:104EA000136001709DF80000FEF70EF938BD10B5D3
:104EB00030B1017A42680368891AC9B21A6006E003
:104EC0000E2010BD03681A68541C1C601170491E26
:104ED000C9B2F7D2006800210171084610BDC208AE
:104EE00000F007030120895C98400840704728B112
:104EF000A1F11702E12A03D3072070470E20704763
:104F000001800020704710B560B10161F72120F8E1
:104F1000021B20F8021BFB2100F8021BFFF7CCFC50
:104F2000002010BD0E2010BD2DE9F043858895B0FE
:104F30000C46002D3DD10188DFF824810026DFF8E2
:104F40002491012723293CD006DC102909D01129FE
:104F50000CD022296DD150E03A290BD0552968D1C7
:104F60002AE00146204601F0A1FC62E0A01DFFF707
:104F7000A3FC5EE02246408934F8061F814200D837
:104F800008466080172800D217206080106970B131
:104F9000607960B1D8E90010CDE90310ADF80E508A
:104FA0006088ADF81000136903A910469847667130
:104FB000267115B0BDE8F0830146204601F0C4FC1F
:104FC00037E0011D342206A8FDF76CFABDF8180081
:104FD000BDF81C2004EBC0014A7322694AB3D8E92A
:104FE0000432CDE90432ADF81200487B8DF814008C
:104FF0002269204604A990471BE00496059630F8E4
:10500000041F04EBC1020179127B8A4200D21146CF
:10501000ADF81010ADF812100088002204A990DF3E
:10502000020006D0B9F800000F4907EB004001F07C
:105030000FF8A07A0028BCD0E18828469EDF020045
:105040000BD0112AB5D0B9F8000015B007EB00401D
:10505000BDE8F043054900F0FBBFA672E772A8E780
:105060007C780200E42A0020DC7B0200547B0200F2
:1050700000F180400068002800D00120704708B58A
:1050800000F18040002101600068009008BD000030
:1050900000283ED01F49204A096800BF00BF00BF5A
:1050A00000BF00BF00BF00BF00BF91422FD000BFB4
:1050B00000BF00BF00BF00BF00BF00BF00BF00BFF8
:1050C00000BF00BF00BF00BF00BF00BF00BF00BFE8
:1050D00000BF00BF00BF00BF00BF00BF00BF00BFD8
:1050E00000BF00BF00BF00BF00BF00BF00BF00BFC8
:1050F00000BF00BF00BF00BF00BF00BF00BF00BFB8
:1051000000BF00BF00BF00BF00BF00BF00BF01382D
:10511000C3D17047E02A00200024F40070B50F4C82
:105120000025207808B1852516E00021A160616086
:105130002161E1604FF0E020D0F80001012610F07D
:10514000010F03D10721002000F022F801F0AAFA94
:1051500008B9034806602670284670BDCC30002090
:105160001805004008B500208DF800006846FDF7DE
:1051700087FF0648C168491EC160C06808B9FFF7CB
:1051800087FB9DF80000FDF79FFF08BDCC30002095
:105190004907090E002806DA00F00F0202F1E022AA
:1051A00082F8141D03E000F1E02282F8001400F000
:1051B0001F02012191404009800000F1E020C0F869
:1051C0008012C0F800117047000B40B27047000019
:1051D0002DE9F0410E46804601F0F0FB204D0028FD
:1051E000404616D0FFF79AF8284490F858008009F6
:1051F000032802D001280AD003E0404600F014FD45
:1052000028B103214046BDE8F04100F0CBBC0221AB
:10521000F8E701F0DFFB002820D04046FFF77EF8DA
:105220000446104F4FF4807007EB840100EB8400BC
:10523000D1F8102580B242F00102C1F8102500F02B
:1052400031FD002E0AD04046FFF768F855F82000DF
:10525000002803D00120A040C7F80403BDE8F08176
:10526000E0300020006000402DE9FC41DFF8AC8018
:10527000044608EB0400002790F930001346C017DD
:105280000E46401C01D0082744E0F278194620461B
:10529000FFF720F80546401C3BD0B07868B168465F
:1052A000009400F0A5FC009900EB8100D0F80017F5
:1052B00021F00201C0F8001707E0002173782046B2
:1052C00000910A46019100F00EFCF078C0B114483C
:1052D000317800EB8500D0F81025124B1A40C0F849
:1052E00010254FF47C524FF4403302EA042203EAC3
:1052F00001410A43D0F810150A43C0F8102509E00F
:1053000008EB0500327810F8581F41EA821101704D
:1053100000E004273846BDE8FC810000E0300020B2
:1053200000600040FFC0FCFF10B500F07DFC0028CD
:1053300000D0012010BD000070B5144D95F8640038
:1053400008B1082070BD0020411E2A18401CC0B2C0
:1053500082F830103028F8D300242046FEF7ACFF46
:10536000641CE4B20C2CF8D307210620FFF710FFD1
:105370004FF4BE7000F096FC05494FF00040C1F8B4
:105380000403012085F86400002070BDE030002097
:1053900000600040034890F86400002800D001201D
:1053A00070470000E03000200121B1EB507F01D1B7
:1053B00001207047002070472DE9F0410546007933
:1053C000164F904607EB40140E46E07E10B10820C1
:1053D000BDE8F081707F20772846FDF78FFE5FEAF9
:1053E000080060603169216003D0317F2846FFF7F3
:1053F000CFF9287907EB4010007F0028286801D0FA
:10540000082100E00421C0F800150020E075207696
:10541000A0750121E176A076DAE70000483100208E
:105420002DE9F04105460079284E904606EB4014E0
:105430000F46207F18B10846FFF7B6FF80B16268BB
:1054400000234FF404704FF4017172B12A7906EB16
:105450004212127F002A2A6805D0C2F8080304E02D
:105460001020BDE8F081C2F80813E27DB2B1227EBF
:105470007AB162685AB12A7906EB4212127F1AB1E8
:105480002968C1F8040302E02868C0F80413112059
:10549000E7E72761012384F8188005E084F8178086
:1054A0000020E760607620762879424606EB4010BF
:1054B0003946007F0028284603D0BDE8F04100F0BF
:1054C00073B8BDE8F04100F01BB80000483100207F
:1054D00070B504460079094D05EB4010017F0029A5
:1054E0000AD1807E002807D1204601F0ABFB21794C
:1054F000012005EB4111887670BD00004831002085
:105500002DE9F05F04460079264901EB4015A87E9D
:10551000184302D1204601F095FB686800282068F6
:1055200006D04FF40171C0F804130020BDE8F09FCD
:105530004FF4A276314601F03AF9B1464FF4927A2F
:105540004FF4847B5146206801F02CF906465946F9
:10555000206801F027F980464946206801F022F9C9
:10556000074648EA07003043ECD056EA070007D167
:105570002946206801F0F0FAE87D697E8842E1D88A
:105580000020E8750EB10320D0E70FB10F20CDE762
:10559000A97E01200029216801D00860C5E7486084
:1055A000C3E70000483100202DE9F05F894604463A
:1055B0004FF488759A46904600260068294601F007
:1055C00007F94FF4A2773946206801F001F9206805
:1055D000C0F83495C0F838852068BAF1000F14D0AF
:1055E000D0F8001241F02001C0F800122179DFF854
:1055F000648008EB4110406850B120684FF404719A
:10560000C0F804133046BDE8F09F01210160EDE7CA
:10561000AA46B9464FF4927B5146206801F0D3F870
:1056200007464946206801F0CEF8054659462068ED
:1056300001F0C9F8014647EA05000843ECD0237998
:10564000002208EB4310C27501B10326002DD9D00A
:105650000F26D7E7483100202DE9F04705460079AD
:105660003F4E904606EB40140F46207F18B1084687
:10567000FFF79AFE30B1284600F074F820B11120EF
:10568000BDE8F0871020FBE784F81680A7600027AC
:10569000A78228794FF0010806EB40143E46207F90
:1056A0000028286825D04FF49079494601F090F8F9
:1056B0004FF4AC7A5146286801F08AF82868A17D39
:1056C000A268C0F84425C0F848152868C0F80880CA
:1056D0006068F0B94946286801F075F8804651467F
:1056E000286801F070F858EA0001F3D058BBA7759C
:1056F0000FE04FF48E7A514601F059F82868C0F84F
:1057000008802146286801F067FD61684FF48070C9
:1057100089B13046B4E75146286801F043F810B922
:10572000A08A4845F7D1A08A484505D02146286877
:1057300001F052FD00E08146A08AA17D8842EAD3B3
:10574000A08A484501D10F26D1E75146286801F0CB
:1057500029F80028F9D02868C0F80C80C7E70000B5
:10576000483100200079044901EB4010807D002879
:1057700000D0012070470000483100200FB408B568
:105780000399002904D004AA00926A4600F00FF899
:1057900001B05DF814FB10B582680446002A05D0FC
:1057A000D4E90403216898470020A06010BD2DE9CA
:1057B000FC4791460C00804676D014F8011B39B1A5
:1057C00025290ED04046FEF759FD20780028F4D157
:1057D00098F80C00002867D04046BDE8FC47FFF76A
:1057E000DABF0020012221782B291BD02D2902D0DD
:1057F000302908D102E040F0010001E040F0020051
:10580000641C002AEFD100252A290ED02178A1F1AD
:1058100030020A2A11D205EB850201EB4205641C15
:10582000303DF1E740F00400EAE7D9F800100B1D25
:10583000C9F800300968641C0D44217800232E2922
:105840000BD114F8011FA1F130020A2A05D203EB93
:10585000830201EB4203303BF3E76C290DD068294A
:105860000BD0692921D00BDC252918D0582931D03B
:1058700063290ED0642915D117E014F8011FECE755
:10588000702969D0732932D075291BD0782909D1A4
:1058900020E0D9F80000011DC9F800100178404649
:1058A000FEF7ECFC641C90E76CE0D9F800100A1DD0
:1058B000C9F800200968CDE900500A224046FEF7E9
:1058C00013FFEFE7D9F800100A1DC9F80020096896
:1058D0000A2206E0D9F800100A1DC9F8002009685C
:1058E0001022CDE90050404601F094FEDAE7D9F8E5
:1058F000001000270A1DC9F800200E68C00705D156
:1059000012E04046761C7F1CFEF7B8FC3178002977
:10591000F7D104E0202140466D1EFEF7AFFCBD42EA
:10592000C0D9002DF6D1BDE74EB13046FCF7DEFD03
:10593000074604E0202140466D1EFEF79FFCBD4255
:1059400006D9002DF6D103E04046761CFEF796FC02
:1059500031780029F8D1A5E7D9F80000011DC9F870
:105960000010056830214046FEF788FC782140464B
:10597000FEF784FC08200021CDE900010346102237
:105980002946B0E7BDE8FC872DE9F04128B1016860
:1059900019B1C969BDE8F04108470D4D0D48002413
:1059A000461B14270DE000BF04EB840005EB8000CC
:1059B000016829B1C969884710B10120BDE8F081AB
:1059C000641CB6FBF7F0A042EED80020F6E700001A
:1059D0000000000000000000044801214174007A2A
:1059E00008B1002070470120704700004C330020B0
:1059F000012801D0032808D10449002201284A7453
:105A000000D00020087401F03DB870474C330020EE
:105A100070B5254C0246207A012837D0022841D1A2
:105A200022480023022A006802D0032A2ED11BE05C
:105A3000E360017911B1012928D10DE0D0E90565B4
:105A4000711B4FF48056B14200D331462944816125
:105A50004569A9420ED019E00169491C01614269FA
:105A6000914213D1237217E0E168491CE1600829D3
:105A70000CD9E3602372022A0ED00D21FEF77AFDC5
:105A80000B480A49091D0068FFF7BAF9607C28B184
:105A9000BDE8704000F00CBE0021EFE7BDE87040AB
:105AA00000F0F0BF70BD00004C3300207C2A0020C5
:105AB000F47802002DE9FF411C46DDE90A7815461D
:105AC0000E46684600F086F846EA450141EA840140
:105AD00041EA072242EA0841009A00EB8200C0F83E
:105AE0000017BDE8FF812DE9FF411C46DDE90A787A
:105AF00015460E46684600F07BF846EA450141EA45
:105B0000840141EA072242EA0841009A00EB820040
:105B1000C0F80017BDE8FF812DE9FF411C46DDE913
:105B20000A7815460E46684600F070F846EA4501C8
:105B300041EA840141EA072242EA0841009A00EB67
:105B40008200C0F80017BDE8FF811CB500220B469B
:105B5000009211460192FFF7DFFF1CBD1CB500212A
:105B600000910B46012201911146FFF7D5FF1CBDA4
:105B7000202802D24FF0A04202E0094A00F01F00A4
:105B800002EB8000D0F8002722F44032C0F8002752
:105B9000D0F8002742EA0141C0F800177047000022
:105BA0000003005013B50C46684600F021F8009938
:105BB00000EB8101D1F8002722F44032C1F8002720
:105BC000009900EB8100D0F8001741EA0441C0F8C9
:105BD00000171CBD0168202902D24FF0A040704779
:105BE00001F01F01016001487047000000030050F0
:105BF0000168202902D24FF0A040704701F01F0138
:105C0000016001487047000000030050016820292E
:105C100002D24FF0A040704701F01F01016001481F
:105C2000704700000003005001B56846FFF7E0FF31
:105C3000D0F810050099C84000F0010008BD01B57A
:105C40006846FFF7E3FF009A01219140C0F808156C
:105C500008BD38B501240090684631B1FFF7BAFF9E
:105C600000998C40C0F8084538BDFFF7B3FF009994
:105C70008C40C0F80C4538BD1CB5094C0144D4E932
:105C80000034CDE900346C4606E000BF54F8203003
:105C9000D3F81035401C08C28142F7D81CBD000063
:105CA000B4780200034908B5084400210160006887
:105CB000009008BD0060004002494058012800D013
:105CC000002070470060004030B5124B01460020B4
:105CD000D3F81044224609E0157A854205D1401CCC
:105CE0000A28F7DB4FF0FF3030BD5268002AF3D1AD
:105CF000421CF9D00872D3F810242AB152684A60C5
:105D0000D3F81024516030BD0022C3F810144A604B
:105D100030BD0000703400207047FCF7A7BD70470D
:105D200008B5034A00924023024A00F005F808BD76
:105D3000F56D020070330020F0B595B01C46154695
:105D40000F4608461A9E00F0E7FA182109A8FCF74A
:105D5000C2FB0E96CDE909540023082203A9384658
:105D600000F0F4FA059806900498ADF81C000020A5
:105D70008DF820000398082600F00300012802D0C7
:105D800002281DD03CE003983346850AC0F3C200C8
:105D90008DF81E0003980FA9C0F380008DF81F0036
:105DA0000398C0F38314A200384600F0CFFA09A884
:105DB000009006AB22460FA9284600F009FA1FE022
:105DC0000398840DC0F3C2008DF81E000398C0F341
:105DD00080008DF81F00082C01D2254600E0082520
:105DE00033462A460FA9384600F0B0FA2E44641B09
:105DF00009AB06AA29460FA800F03AF9002CEAD10F
:105E0000384600F092FA15B0F0BD00000A4A0129A8
:105E100002EBC00007D0022907D0032907D00429CC
:105E200007D0002070470220704704207047007997
:105E300070474079704700004082020010B5FFF7BC
:105E40006CFF04210348FFF73FFF0249012048721D
:105E500010BD0000882A00202DE9F04F8DB0FEF71C
:105E60001DFA18B100200DB0BDE8F08F7448002174
:105E7000C0F81814BFF34F8FD0E9014604EA0601B9
:105E800000EB81014FF000090AE000BFC1F3891265
:105E900002EB9151641C0C4404EA060100EB810101
:105EA000C9688A07F2D0002103AA804604EA0600E6
:105EB00008EB8000641CC06842F82100491C43467E
:105EC0000229F3D3039800F00300022806D001282A
:105ED00003984FD0C04380077ED0ACE00398502297
:105EE000810D8A46B2EB905F00D850210D4665F3D4
:105EF0009F5003900831534800F0C5F907006CD05B
:105F000000F00AFA4B46082203A9384600F024FAAA
:105F100004EA0601701A8000001D09F1080B854291
:105F200021D9474E0C3630B1C2B208EB8101281A94
:105F300091460C3104E03146EAB2002691463046E3
:105F4000C5B25B46384600F007FA0BEB09032EB1E9
:105F50002A4631464FEA070000F0FEF90AF1030035
:105F600004EB90043BE008EB81015B462A4638468F
:105F70000C31F1E7C0F38310062800D30620039903
:105F800060F38911C1F38310801C039181002D48B7
:105F900000F079F907004ED000F0BEF94B46082218
:105FA00003A9384600F0D8F909F1080900250DE0E9
:105FB00004EA060008EB80014B46042238460C3107
:105FC000641C00F0C9F909F104096D1C0398C0F3C1
:105FD0008310A842ECD801E00BE02CE05FB3D8F8C6
:105FE0001054D8F81804464690B1384600F09DF990
:105FF00021E0D3F8180400283FF435AF1BE0687A9D
:10600000012804D1296828460A68394690476D68F6
:10601000002DF4D1384600F088F900208DF80000FA
:106020006846FDF72DF8D6F8180400B974609DF89D
:106030000000FDF749F8FEF731F980F0010012E7A2
:1060400070340020147A020000231A4600F090BF3A
:1060500008B5012300926A4600F08AFF08BD1CB50E
:10606000CDE9002302236A4600F082FF1CBD000038
:106070002DE9F0470E4680461C46924608293ED838
:1060800094F80C90002020731946104600F0CCFCC8
:106090000025B54206D218F805201AA12046FFF7C0
:1060A0006DFB03E019A12046FFF768FB6D1C082D6E
:1060B000EFD317A12046FFF761FB0025B54210D2B0
:1060C00018F80570FCF7EAF90068C05D10F03E0FA3
:1060D00001D03A4600E02E220EA12046FFF74EFBEB
:1060E00003E00DA12046FFF749FB6D1C082DE5D309
:1060F00001222146504600F079FC84F80C90BDE85E
:10610000F087000020253032780000002020200099
:106110007C0000002563000020000000114810B53D
:10612000FF218160002101604160C0F81814C0F8AF
:10613000141480F81C140C4800F0F5F800280FD156
:106140000A480B490B4B401AC108002005E000BF6C
:1061500000EB400223F82200401C8842F8D30020C4
:1061600010BD000070340020147A020090820200FA
:1061700040820200E42A002002480349401AC00875
:1061800070470000908202004082020013B568460A
:10619000FEF7CEFD08B100201CBD0248009950F862
:1061A00031001CBD4082020070B508480125D0F8BE
:1061B000104480F81C5405E0657221682046496847
:1061C00088476468002CF7D170BD0000703400204F
:1061D0002DE9FF4781460C9D00200C462F7B28733C
:1061E000984616462946184600F01EFC072E42D255
:1061F000DFE806F004090F161F2A36004946284634
:10620000FFF7BCFA37E0494628462268FFF7B6FA9E
:1062100031E0D4E9002349462846FFF7AFFA2AE0E7
:10622000A0680090D4E9002349462846FFF7A6FA63
:1062300021E0D4E90201CDE90001D4E90023494677
:106240002846FFF79BFA16E004F1080007C88DE81E
:106250000700D4E9002349462846FFF78FFA0AE0F1
:1062600004F108000FC88DE80F00D4E90023494667
:106270002846FFF783FA00222946404600F0B6FB85
:106280002F73BDE8FF872DE9F041058A80462D1F59
:106290004819C01CB0FBF5F0C6B24046FEF7CDFD74
:1062A000041E19D00020207101206071E5800027B4
:1062B0002546761EC4F800800BE04046FEF7BDFD83
:1062C00060B16179491C6171286005467F1CC0F886
:1062D0000080B742F1D32046BDE8F081204600F0AF
:1062E00002F80020F8E72DE9F041457901466B1EE0
:1062F000002201E00968521C9A42FBD30F68014654
:10630000002605E038460C68FEF7B9FD2146761CEC
:10631000AE42F7D3BDE8F08108B501216A46001D01
:10632000FCF70FF808BDFEF7C2BD38B50446001DE6
:1063300001216A46FCF712F8009810F0FF0F04D113
:106340002046BDE83840FFF7CEBF38BD38B5012440
:106350000094FEF7B1FC38BD38B500240094FEF778
:10636000ABFC38BD20B103490968016000207047CB
:106370000E207047A07A02002DE9FE4306460D4626
:106380000846FFF7EFFF00287ED18046CDF8008059
:10639000CDF80480012403208DF80060ADF80400DE
:1063A000CDF808808DF80240694620202A6869DF10
:1063B0003F4F40B100F0ECF9024638883D4904EB0C
:1063C0000040FFF745FECDF800808DF800408DF8C5
:1063D0000180CDF80480CDF808808DF802806946F0
:1063E00040202A6869DF40B100F0D2F902463888BF
:1063F000314904EB0040FFF72BFECDF800808DF80B
:106400000060F720ADF80200CDF80480CDF80880D8
:10641000694623202A6869DF40B100F0B9F90246D5
:106420003888264904EB0040FFF712FECDF80080C3
:10643000CDF80480CDF808808DF8004046466946C6
:1064400001202A6869DF40B100F0A2F902463888CD
:106450001B4904EB0040FFF7FBFD4FF4B0600090D8
:10646000019602966946A1202A6869DF40B100F0D2
:106470008FF902463888134904EB0040FFF7E8FD26
:1064800000960196029600E010E08DF800606946E3
:10649000A0202A6869DF40B100F07AF90246388806
:1064A000094904EB0040FFF7D3FD0020BDE8FE835F
:1064B000442B0020E8800200308102007C81020031
:1064C0004880020094800200F47F02002DE9F04130
:1064D0000446D0F800E060DF2368144D064673459B
:1064E00015D02888022707EB0040724610A1FFF75D
:1064F000B6FDF806D0F80C012168800200F10050CA
:10650000421A288816A107EB0040FFF7A1FD56B1FB
:10651000304600F03DF902462888012101EB004099
:1065200018A1FFF795FD3046BDE8F081442B00200F
:1065300052414D20737461727473206174203078FD
:1065400025782C2063616E2062652061646A757312
:1065500074656420746F20307825782E0000000068
:1065600052414D2073697A652063616E2062652017
:1065700061646A757374656420746F20307825785F
:106580002E00000073645F626C655F656E61626C13
:106590006528292072657475726E65642025732ED6
:1065A0000000000030B5EBB04FF4CE75ADF8A85147
:1065B0006AA9684661DF30B1052816D06BB0BDE826
:1065C0003040FCF707BC6C46094967A800F09CF80E
:1065D00007E000BFD0E900212046904767A800F0FF
:1065E000AAF869980028E1D0F4E76BB030BD00004C
:1065F000A47A020010B50D4C2078A0B10120A07043
:1066000000F05AFB11280CD0022000F06DFB11DFC6
:10661000002807D12070A07000F060FC032000F07B
:1066200063FB002010BD082010BD0000DC2A002004
:1066300038B5104C207808B1082038BD0125A57068
:10664000002000F039FB112812D0002000F04CFB94
:1066500009480A4900680090684610DF0028ECD11C
:106660002570A070607000F055FC012000F03CFB2C
:10667000002038BDDC2A0020387A02005D2D02009F
:106680000EB50749684600F03FF805E0D0E9001074
:106690008847684600F04FF802980028F6D10EBDF2
:1066A000547A02000148007870470000DC2A00207C
:1066B0000548817819B1007818B1FFF79BBF082011
:1066C0007047FFF7B5BF0000DC2A00201FB5684601
:1066D00048DF30B1052814D004B0BDE81040FCF705
:1066E00079BB084901A800F00FF806E0D0E90021C5
:1066F0000098904701A800F01EF803980028E6D003
:10670000F4E71FBDC07A0200016009684160AFF381
:10671000008010B5D0E900215368994201D10021D1
:1067200004E0D1E90034A34202D01946816010BDD3
:1067300008314160F0E7816800290BD00268926857
:106740000A44826041684B689A4203D10831416033
:10675000FFF7DFBF704700000C4A10B502F1F003ED
:106760000EE0991AC91001EBD171491002EBC10179
:106770000C68844201D90B4602E005D201F10802FF
:106780009A42EED3002010BD486810BD187902006F
:1067900000B5FFF7E1FF002800D1014800BD00006F
:1067A000047902004058002800D00120704708B545
:1067B000002242504058009008BDD0F80403084021
:1067C00000D0012070474058002800D001207047B9
:1067D00008B5002242504058009008BD2DE9F04114
:1067E00005460078002826D10026144F4FF00108F6
:1067F00012E0A868805DFCF725FC04000BD0112C8A
:10680000F7D03988224608EB01400DA1FFF720FCA4
:106810002046FCF7DFFA761CA889B042E9D8A9899E
:10682000A868084410F8010C0D2804D10A20FCF7D0
:1068300009FC1128FAD0BDE8F08100002C2B0020C3
:106840004661696C656420726563656976696E6727
:10685000204E5553206D6573736167652E20457218
:10686000726F7220307825782E20000010B550B15C
:1068700003280CD10220FDF795FB002807D0BDE8C6
:106880001040FCF7A7BABDE8104000F00DBB10BDEA
:106890000078002807D104483B21408876DF002893
:1068A00001D0FCF797BA7047182A00202DE9FC4167
:1068B0008E88027900EBC605AC1D2A73C97B0129BD
:1068C00002D0022904D101E0008800E04088208045
:1068D000218860880127DFF8648081420CD9304626
:1068E0009EDF020025D0112A25D0B8F800001449F7
:1068F00007EB0040FFF7ACFBA079E179884216D99D
:10690000002000900190287BADF80000287BADF8B6
:10691000020000226946304690DF030007D0B8F835
:106920000000324607EB00400649FFF798FBBDE840
:10693000FC816771E0E72771DEE70000E42A0020B0
:10694000547B0200247C02007CB506468D88C888F2
:1069500006EBC504A41D172800D217202188814208
:1069600000D8084660800020207121882846ADDFCD
:10697000020007D00E480121008801EB00400D49BC
:10698000FFF766FB6079002810D1306900280DD030
:106990000948D0E90210CDE90010ADF80250608836
:1069A000ADF8040032696946304690477CBD00006E
:1069B000E42A0020987B02007C7802000449084405
:1069C00090F93000082801DB012070470020704753
:1069D000E03000200449084490F93000082801D232
:1069E0000120704700207047E030002010B50C46B1
:1069F000C17949B11AB109A12046FEF7BFFE204670
:106A0000BDE81040FEF7C7BE007A0028F3D0044866
:106A100004A102682046FEF7B1FEECE70D0A000073
:106A2000B82A00202573000070B50446C0790D46D1
:106A300000281CD1207A50B1A179A088FFF7E6F98F
:106A40000B4951F820200BA12846FEF797FEA0889D
:106A50000021FFF79BFB03460549A079143951F843
:106A600020202846BDE8704003A1FEF787BE70BD18
:106A7000B82A0020257300003C25733E2025733A78
:106A8000200000002DE9F041214C0025214E207A04
:106A9000012730B92048311D0068FEF7BCF930608D
:106AA00038B1022020723168087928B101281ED13E
:106AB00016E06560BDE8F081D1E90503C01A4FF426
:106AC0008052904200D31046B7EB900F01D282085B
:106AD00000E001220869C9681844194429DF03E06D
:106AE000D1E90301084428DF38B111280ED0032171
:106AF0003068FDF73FFD2572DBE7207C0028D9D107
:106B0000BDE8F04100210220FEF782BF2772D1E7E5
:106B10004C3300207C2A0020F478020070B5012656
:106B200070044FF0E0210025C1F88001084C4010AE
:106B3000C4F84803C4F8080366602F20FEF7A8FADB
:106B4000A660044C2F20A560FEF7A2FAA57070BDC8
:106B500000100140582A002070B50546C87D0C463B
:106B600000284FF4847128460AD0FFF720FED5F89C
:106B70001805627EE1688854607E401C607670BDB6
:106B8000FFF715FED5F8180570BD30B58FB0054676
:106B90001C216846FBF79FFC00249DF8000001942F
:106BA00040F00C008DF800000394049405940694C2
:106BB00028788DF836000220ADF834000C949DF84A
:106BC0003000142120F00F00401C20F0F0001030A5
:106BD0008DF830009DF8310020F00F00401C20F0AF
:106BE000F00010308DF831009DF8320020F00600E2
:106BF000801C20F0180040F001008DF8320007A83A
:106C0000FBF769FC0DA807900CA808900120ADF8CF
:106C10002400F420ADF82640ADF82800688805F17E
:106C20000C0307AA6946A2DF0FB030BD1FB50123D0
:106C30008DF800308DF808100192D0E900126846F6
:106C400090471FBD10B5044600684FF49271FFF7DE
:106C5000AEFD4FF484712068FFF7A9FD2068012183
:106C6000016010BD38B50021012558B101280ED0B2
:106C700003280BD107210020FEF78AFABDE838402F
:106C8000FEF770BA4FF0E020C0F8805138BD8DF8A3
:106C900000106846FCF7F4F9064C207808B9FEF7B6
:106CA0003DFAE068401CE060A5709DF80000FCF72C
:106CB0000BFA38BDCC3000203EB504460949684681
:106CC000FFF722FD08E000BFD0E9002120469047F1
:106CD00030B16846FFF72FFD02980028F4D13EBD81
:106CE00011203EBD3C7A02003EB504460849684684
:106CF000FFF70AFD07E000BFD0E9002120469047DA
:106D00006846FFF718FD02980028F5D13EBD000047
:106D1000487A020070B50028049D18D0002916D0CA
:106D2000002A14D05FF0000430F814609E420FD1A6
:106D300000200123A34008E001EB800426680DB188
:106D40001E4300E09E43401C26609042F4D370BD79
:106D5000641C202CE8D370BD70B505460024214684
:106D6000284600F00AF808B1204670BD641CA4B2A1
:106D7000202CF4D34FF6FF7070BD01228A400242EE
:106D800001D001207047002070472DE9F04192B0FA
:106D900080464FF0000017460D00009012D00024EE
:106DA0006E46A1B23846FFF7E8FF40B1009935F8CA
:106DB000140006EB410188800098401C0090641C80
:106DC000202CEED3442269464046FBF76BFB12B001
:106DD000BDE8F08108B5009313460122FFF79AFF42
:106DE00008BD000002498969002900D008477047A2
:106DF000F82F00202DE9F04114000F460DD000259A
:106E00000A26791922460020FBF732FD0544241A90
:106E100008B9761E01D0002CF3D1BDE8F081000046
:106E20002DE9F0410746806A14468846C8B300251C
:106E300031E000BFB96A05EB450001EB8006B08880
:106E4000801CFE2802D90C20BDE8F0812288401C5D
:106E500008F8020020881622401C80B2208008F822
:106E600000202088401C80B2208000EB0801308880
:106E700000F0CBFB2188084480B22080B28842B168
:106E8000B16871B14044FBF70DFB2088B18808441C
:106E900020806D1CEDB297F82C00A842CAD80020C3
:106EA000D2E7FFE70720CFE710B50020FDF77AF81B
:106EB00008B1FBF78FFFFCF7D3FF08B1FBF78AFFA0
:106EC00032DF002803D0BDE81040FBF783BF10BDC0
:106ED000002801D1FDF72ABA7047000010B516202E
:106EE000FBF7B0FE48B10A4882684FF4800152B106
:106EF000016821F48001016010BDBDE8104042F23C
:106F00000100FBF767BF4FF0E020C0F8801110BD13
:106F1000B432002010B51620FBF794FEB0B1124831
:106F200090F800044009082813D290B1012810D02D
:106F300004280ED005280CD00C4882684FF480013C
:106F40006AB1016841F48001016010BD42F20100A4
:106F500001E042F20200BDE81040FBF73BBF4FF0FA
:106F6000E020C0F8001110BD16E000E0B4320020AF
:106F70002DE9F843214C8846054691461F4669464F
:106F80001846A668FDF748F970B30098811C0022E6
:106F90000AE000BF01EA060C59F8223004EB8C0C21
:106FA000491C521CCCF80C30BA42F3D30246401CA8
:106FB000304004EB80002B0CC36002EA060004EBB7
:106FC0008002E80652F80C0F02D540F0040001E000
:106FD00020F0040065F3C50067F3891068F39F2073
:106FE00020F00300401C106094F81C0402E000BF75
:106FF000FEF732FF0028FBD1BDE8F8837034002093
:107000002DE9F84F1D4C00256846D4E901A6FDF78F
:1070100091FA002738B30023009A61681CE0D1F888
:1070200000C00846944503D9ACEB02020A6015E0A3
:10703000A2EB0C0263440760D0F80CC0C169814622
:10704000BCF1000F08D006EB030828F07F48C0E928
:10705000018CC9F81C5005460029E0D12846616022
:10706000FDF736FC03E02846FDF732FC10B1504630
:10707000FDF770F9E770BDE8F88F0000582A00208E
:107080000D4B10B5596831B102680C68A24204D8A2
:10709000A21A0A60C161586010BD0B4603E00B469E
:1070A000C969121B21B10C689442F8D3A41A0C6070
:1070B0000260C161D86110BD582A00202DE9F0415D
:1070C000144E77683D462C4603E0844204D02546A2
:1070D000E469002CF9D11BE0D4B1A5420BD1F869C9
:1070E000706040B90C49012088600021B160F070E7
:1070F0002F20FDF7CDFF2168E069E86110B102683B
:10710000114401607068874202D00120BDE8F0811F
:107110000020FBE7582A0020001001407CB50646FD
:1071200000240D468DF800406846FBF7A9FF01A832
:1071300000F0FEFA70B10570094946609DF8040040
:1071400048709DF80000FBF7BFFF1420FBF734FBED
:1071500020467CBD04249DF80000FBF7B5FFF7E74F
:10716000883100202DE9F041194D6C68002C2CD09D
:10717000184800270068A968B846401A20F07F46E2
:107180002068B0420CD82146361A0744E469087CCE
:1071900020B181F81080886949698847002CEFD1B7
:1071A00029786878814206D1401CC0B268700228F4
:1071B00001D185F80180064869780C3040F82170CB
:1071C000BDE8F0411420FBF7F7BABDE8F0810000FC
:1071D000582A00200415014070B50C4605464FF4AE
:1071E0008E71FFF7E4FAA18AA068415CA08A401C76
:1071F000A082C5F81C1570BD30B58FB000240546BF
:1072000007949DF81C001C2120F00F00401C20F06A
:10721000F00010308DF81C009DF81D0020F00F00CC
:10722000401C20F0F00010308DF81D009DF81E006D
:1072300020F00600801C8DF81E006846FBF74BF915
:107240009DF80000019440F010008DF8000007A8A0
:10725000CDE904400394069428788DF83A00032081
:10726000ADF838000D949DF83400142120F00F0083
:10727000401C20F0F00010308DF834009DF83500EF
:1072800020F00F00401C20F0F00010308DF8350089
:107290009DF8360020F00600801C20F0180040F019
:1072A00001008DF8360008A8FBF715F90EA8089024
:1072B0000DA809900120ADF82800F420ADF82A406F
:1072C000ADF82C0068882B1D08AA6946A2DF0FB014
:1072D00030BD1FB500228DF800208DF808108168A0
:1072E00001918275D0E90012684690471FBD0000E9
:1072F00038B5017841B1012901D0022928D140686F
:10730000BDE83840FBF766BD134C124D2078284489
:10731000FBF724FE2078401CC0B22918207011F819
:10732000011C0A2902D0A188884211D3207809497A
:10733000ADF800006A4601F53D70FCF7BFFC082877
:1073400004D01128F2D008B1FBF744FD00202070D2
:1073500038BD00005C2B0020182A00207CB5017885
:10736000244D81B301290BD002292BD18DF80010B7
:10737000C068691C01900122C81DFEF751F82EE07B
:10738000406801781C48FBF74BFD1B4C012618B1E7
:107390008DF80060019006E0A068E168814205D0A8
:1073A00000208DF80000696868468847A068E16899
:1073B000081AA188884207D80E490122491CC81D15
:1073C000FEF72EF87CBD01E0AE70FBE70A480949E4
:1073D0001030FBF70AFD30B103208DF8000069681A
:1073E00068468847EEE70349012201F10800FEF7ED
:1073F00033F9E7E76C2A0020943200202DE9FF479B
:107400000C4605464FF40071FFF7D7F901274FF4FA
:107410000178002618B34FF4927949462846FFF7C1
:10742000C1F9E0B149462846FFF7C1F9C5F808831C
:10743000A07E00B96F6002208DF80000D5F88004AE
:10744000C5F880040390E07D8DF80800E0680190A5
:10745000E6752676D4E900126846904727E00421B5
:107460002846FFF7AAF910B34FF484712846FFF7B6
:1074700099F9E0B121462846FFF76EFBE07D617E79
:10748000884214D1207E38B1617EE268E0752069BF
:10749000E0602676667607E0A07E00B96F60C5F8EA
:1074A0000883E675617EE2682046FFF7BFFB4FF474
:1074B0008E7841462846FFF775F988B1A08AA17DEC
:1074C000884204D221462846FFF786FE08E041465E
:1074D0002846FFF76CF9A17D11B12046FFF7F9FEB0
:1074E0004FF4A27841462846FFF75CF9002812D0F5
:1074F00041462846FFF75BF9A07E00B12F60E07D92
:10750000002808D0E675617EE26804B02046BDE838
:10751000F047FFF78BBBBDE8FF872DE9FF410C4625
:107520004FF4927705463946FFF74DF90026C0B172
:1075300039462846FFF74CF902208DF80000D5F8AF
:107540008004C5F880040390D5F83C058DF8080048
:10755000E0680190E6752676D4E900126846904707
:1075600024E04FF4887739462846FFF72CF9E8B134
:1075700039462846FFF72CF9D5F83C05C1B2E07D25
:10758000884213D1207E60B1E268D5F8000220F075
:107590002000C5F80002207EE0752069E0602676B4
:1075A00001E0E675E2682046FFF740FB4FF4A27762
:1075B00039462846FFF707F968B139462846FFF7EC
:1075C00007F9E07D38B1E675D5F83C05E268C1B24F
:1075D0002046FFF72BFB4FF4907631462846FFF705
:1075E000F2F800280FD031462846FFF7F1F8A07DC9
:1075F000002808D0D5F84C0504B0C1B22046BDE83B
:10760000F041FFF766BEBDE8FF810870000A4870D0
:10761000022070472DE9F05F8346DDE90A4A99466A
:1076200090460D460846012703E000BFB0FBF8F086
:107630007F1C4045FAD2B94500D94F465FEACA706F
:1076400012D18CB15FEA8A7002D5B9F1000F01D076
:10765000202607E0302605E031465846641EFCF738
:107660000DFE0CB1A742F7D35FF00106B9F1010F8F
:1076700002D9A9F1010903E0B5FBF6F0404502D3B8
:1076800006FB08F6F2E7DFF83C9000BFB5FBF6F02A
:1076900000FB165519F800105846FCF7EFFDB6FB35
:1076A000F8F6002EF2D15FEACA7009D0002C07D09C
:1076B000A74205D220215846641EFCF7DFFDF5E7FE
:1076C000BDE8F09FE4780200F8B5054680B2FDF70A
:1076D00001F8040013D0154E207A0027317B884230
:1076E0000ED2A8B204F10A0175DF28B1112806D024
:1076F000BDE8F840FFF776BB207A401C2072F8BD49
:107700002772307C38B1A8B23B2176DF18B1082847
:1077100001D0FFF767FB71690029F0D08DF8007088
:10772000ADF8025068468847F8BD0000F82F0020E9
:107730000A494A788B78521CD2B2934200D1002277
:107740000B78934201D1002070470270487800EB1B
:10775000400001EBC000001D704700008831002090
:107760002DE9FC411646DDE90854CDE900541F46D9
:107770008046022200F00CF8002807D1CDE9005421
:107780003B4610223146404600F002F8BDE8FC813D
:107790002DE9FC5F0026DDE90C4B994692468E46AA
:1077A00080462788354630E0D8F80400002200EBF8
:1077B000850069460068019001A864DF002830D187
:1077C0009DF8000050451FD10EB1002100E00221BC
:1077D000228808441118594522D846B9521C90B243
:1077E000208009F800E02088401C208001262188A4
:1077F00001A801EB0902694664DF002811D1208845
:107800009DF80010084420806D1CB8F80000A842C4
:10781000CADC56B12088C01B401E80B2FF2802D9A6
:107820000C20BDE8FC9F09F807000020F9E70000E4
:10783000080000000600000005000000070000002E
:10784000000000000000D6010D0E0F100B0C1819DF
:10785000582F0020782F0020A42F00200B000300B9
:10786000813E02000C000300813E0200180003006C
:10787000813E020019000300813E0200770A0000E9
:1078800000000000770A0000000000007ADA000023
:1078900000000000010000000000000000000000E7
:1078A000000000009ECADC240EE5A9E093F3A3B516
:1078B0000000406E000000500003005068310020BE
:1078C00003000000FFFFFFFFFFFFFFFFFFFFFFFFC1
:1078D000FFFFFFFF00000000000000000000D601D5
:1078E0000701000030313233343536373839414200
:1078F00043444546603300200010000004000000AF
:1079000001000000556E6B6E6F776E206572726FAE
:107910007220636F64650000000000005C7F02005D
:10792000010000001C7E0200020000009C7C02009E
:1079300003000000907E020004000000E47E0200CC
:1079400005000000DC7D0200060000007C7D0200D6
:1079500007000000CC7E020008000000F07D02005D
:10796000090000003C7E02000A000000447F020083
:107970000B000000847C02000C000000087E020066
:107980000D000000687F02000E000000BC7E0200B7
:107990000F000000F87E0200100000002C7F0200A3
:1079A000110000007C7F020080000000BC7D02000E
:1079B00081000000407D020082000000007D020086
:1079C00083000000E07C0200840000001C7D0200B7
:1079D00085000000947D020086000000A47E020065
:1079E000900000005C7D020091000000C07C02005D
:1079F000008200000C7F020001820000587E02001D
:107A000002820000747E0200215D02001F5D020000
:107A1000195D02009C2A0020942A00209C2A002044
:107A2000B033002018000000C8820200D08202009B
:107A3000000000000000000001000007287A02009A
:107A4000387A020008000000607A0200707A0200B2
:107A500008000000707A0200807A0200080000002E
:107A6000F88202000883020000000000000000000D
:107A7000E8820200F882020000000000000000001E
:107A8000908202009882020098820200B88202006E
:107A9000B8820200C0820200C0820200C8820200D6
:107AA000182A0020807A0200A07A02000800000054
:107AB000D0820200E0820200E0820200E88202003E
:107AC000B07A0200C07A0200080000000040404086
:107AD00040404040404041414141414040404040A1
