:020000022000DC
:1020000000000420498802007188020073880200E1
:1020100075880200778802007988020000000000BD
:102020000000000000000000000000007B880200AB
:102030007D880200000000007F8802008188020085
:10204000E94E020083880200555F02008388020087
:1020500083880200838802000953020083880200FB
:10206000838802008388020083880200838802003C
:10207000838802008388020083880200838802002C
:1020800083880200B931020083880200838802003D
:102090005932020083880200158F020083880200F3
:1020A00083880200838802008388020083880200FC
:1020B0008388020083880200000000000000000006
:1020C00083880200838802008388020083880200DC
:1020D00083880200838802008388020083880200CC
:1020E00083880200838802008388020000000000C9
:1020F00000000000838802000000000083880200C6
:1021000000000000000000000000000000000000CF
:1021100000000000000000000000000000000000BF
:1021200000000000000000000000000000000000AF
:10213000000000000000000000000000000000009F
:10214000000000000000000000000000000000008F
:10215000000000000000000000000000000000007F
:10216000000000000000000000000000000000006F
:10217000000000000000000000000000000000005F
:10218000000000000000000000000000000000004F
:10219000000000000000000000000000000000003F
:1021A000000000000000000000000000000000002F
:1021B000000000000000000000000000000000001F
:1021C000000000000000000000000000000000000F
:1021D00000000000000000000000000000000000FF
:1021E00000000000000000000000000000000000EF
:1021F00000000000000000000000000000000000DF
:1022000010B5054C237833B9044B13B10448AFF330
:1022100000800123237010BD8C2C002000000000E2
:1022200038B102000C4B43B10C480D4910B5AFF367
:1022300000800C48036823B910BD0A48036833B90D
:102240007047094B002BF7D0BDE810401847064BEC
:10225000002BF5D0184700BF0000000038B1020085
:10226000902C0020102C002000000000154B002BAB
:1022700008BF134B9D46A3F5803A00218B460F46BD
:102280001348144A121A07F022F80F4B002B00D003
:1022900098470E4B002B00D09847002000210400E7
:1022A0000D000D48002802D00C48AFF3008006F066
:1022B000BFFF2000290004F059FE06F0A5FF00BF73
:1022C00000000800000004200000000000000000E2
:1022D0008C2C00206C3C002000000000000000005E
:1022E000704700BF00B583B0044B0093044A4023FD
:1022F00000F020F803B05DF804FB00BF05230200E6
:10230000A82C00208AB1F8B50F4614460A260025ED
:1023100022467919002004F027FF0544241A08B941
:10232000013E01D0002CF3D1F8BD7047704700BFCB
:1023300004F0DEBFF0B595B0002415460F46084600
:102340001E4602F021FB384623460822089505A9BF
:102350001A9D09960D950A948DF82C400C9402F064
:1023600079FB9DF81430079806998DF8104003F01A
:102370000302012A0290ADF80C102CD0022A04D0DE
:10238000384602F011FB15B0F0BDBDF81650C3F38E
:10239000C202C3F38003C5F389158DF80E208DF8B2
:1023A0000F300826082D2C4628BF08243346224625
:1023B0000EA9384602F04EFB2D1B214608AB02AA9F
:1023C0000EA8264400F0E2FC002DEBD1384602F0C6
:1023D000EBFA15B0F0BDBDF814500598C5F38315A0
:1023E000C3F3C20EAA000EA9C3F38004C0F395265E
:1023F000082338468DF80EE08DF80F4002F02AFBD6
:1024000008AB00932A4630460EA902AB00F026FC2A
:10241000B6E700BF10B5054CFFF78AFF2046042140
:1024200000F0DCFB0123637210BD00BF182A0020FE
:102430000F4B104810B50022FF21C3F818249960F3
:102440001A605A60C3F8142483F81C2402F052FA6C
:1024500068B90949094BC91AC90808D0084C02468D
:102460000346A3520133994202F10C02F9D110BD87
:10247000E82C00204CA50200DCB102008CB1020067
:10248000142C002021B9124A02EBC00000687047EA
:1024900030B410490E4D491BC9080ED00E4B5A8856
:1024A000824218BF002205D10FE0DC89844203F18B
:1024B0000C0305D001329142F7D1002030BC7047A7
:1024C00005EBC200006830BC70472846FAE700BF41
:1024D0008CB10200DCB10200142C0020094B013940
:1024E00003EBC00003290BD8DFE801F00208060463
:1024F0000220704740797047007970470420704788
:10250000002070478CB102002DE9F047814C94E81F
:102510000C009A4284B040D00023C4F81834BFF3B2
:102520004F8F6068A56800EA0506F31C04EB830181
:1025300014F823309F07024610D10B884988C3F353
:10254000891303EB911301331A4405EA0206F31CC5
:1025500004EB830114F823309B07EED004EB8606CE
:10256000511CF3680193294004EB810103F003033C
:10257000C9680291022B02F1020812D0012B74D01B
:10258000032B06D02368181A18BF012004B0BDE839
:10259000F087D4F81834002BF4D1002004B0BDE843
:1025A000F087BDF806305C48C3F389194F46502FB9
:1025B000A8BF502767F38F1307F10801ADF8063065
:1025C00002F09AF9064600284DD025EA080A0AF1D9
:1025D000010A02F0D9F94FEA8A0A0023082201A968
:1025E000304602F009FA574540F28780BAF1000FF1
:1025F0007CD005EA08010331A7EB0A0504EB810151
:10260000082352463046EDB202F0F6F92A460AF1A6
:1026100008034249304602F0EFF909F1030708EBDD
:102620009707D4F81834002B5BD1D4F810544DB16F
:102630006B7A3146284613B12B681B6898476D6842
:10264000002DF5D1304602F0AFF904A8002300F8C0
:102650000D3D01F0A9FBD4F8183403B967609DF86B
:10266000030001F0C7FB60688CE7BDF804302A481E
:10267000C3F38312062A28BF0622911C62F3891332
:102680008900ADF8043002F037F906460028EAD098
:1026900002F07AF90023082201A9304602F0ACF9D1
:1026A000BDF8043013F4707F32D04FF0000A4FF0C1
:1026B000080908EA050103314B4604EB81010422B5
:1026C000304602F099F9BDF804300AF1010AC3F36B
:1026D000831308F10107534509F10409B846E8D806
:1026E0009FE7304602F060F960684BE73A460823FE
:1026F0000A49304602F080F98FE705EA0801033104
:1027000004EB81013A460823304602F075F984E76C
:10271000474686E7E82C00204CA50200F42C002058
:102720002DE9F04F87B006AB00255C4C03F80D5D3A
:1027300080461846A3680093019101F035FBA0681C
:102740006768D4F80090C3190133A3EB0903032B86
:102750005BD800F1010AAE46AAEB090A04F5836CC6
:1027600004F2144601255CE8003F43EA05024CE808
:10277000002191F0000FF6D156E8003F43EA050230
:1027800046E8002191F0000FF6D100EA070B0BF1AB
:10279000030304EB830114F823309B073A4611D15D
:1027A0000B884988C3F3891303EB911301331A444F
:1027B00000EA020B0BF1030304EB830114F823304E
:1027C0009B07EDD004EB8B0B0232DBF80C3003934C
:1027D00003F00303012B5BD0022B06D1BDF80E30B2
:1027E000C3F38913033302EB930256E8003F03EA75
:1027F0000E0146E8001B9BF0000FF6D10BB16260A2
:1028000017460AEB0703032BADD909EA000303338C
:1028100009F1020114F823209DF80B0042F0030295
:1028200004F82320216001F0E5FA009B09F1010280
:102830001A4004EB820203EA090303334FEA18410A
:10284000D16014F82320C8F3001161F3820268F309
:10285000C50204F8232034F8232001996FF389126C
:1028600024F8232054F8232061F39F2211460120ED
:1028700060F3010144F8232004F8231094F81C3479
:102880001BB1FFF741FE0028FBD107B0BDE8F08F78
:10289000BDF80C30C3F383131A44A6E7E82C0020DC
:1028A0002DE9F04F89B008AB4FF0000903F80D9DFA
:1028B0005E4C0291074618460392A56801F074FA2F
:1028C00094E80011A06800EB0C030133A3EB0803AC
:1028D000042B5DD800F1010AAAEB080A04F2144E99
:1028E00001260195524D55E8003F43EA060245E8AE
:1028F000002191F0000FF6D15EE8003F43EA0602A6
:102900004EE8002191F0000FF6D100EA0C0B0BF11C
:10291000030304EB830114F823309D07624613D1AF
:10292000019D0B884988C3F3891303EB911301338D
:102930001A4400EA020B0BF1030304EB830114F8C1
:1029400023309B07EDD0019504EB8B0B0232DBF8B3
:102950000C30059303F00303012B61D0022B06D149
:10296000BDF81630C3F38913033302EB93025EE81C
:10297000003F03EA09014EE8001B9BF0000FF6D16F
:102980000BB1626094460AEB0C03042BAAD9019D9B
:1029900008EA0000C31C08F1030114F823209DF885
:1029A000130042F0030204F82320216001F022FA10
:1029B00008F1020208F101032A402B4004EB8202D5
:1029C00004EB830305EA08050335390C0398D0604E
:1029D000D96014F82530C7F3001262F3820367F35D
:1029E000C50304F8253034F82530029A012161F33B
:1029F000891324F8253054F8253062F39F231A46B2
:102A000061F3010244F8253004F8252094F81C34C1
:102A10001BB1FFF779FD0028FBD109B0BDE8F08FAD
:102A2000BDF81430C3F383131A44A0E7E82C002048
:102A3000003100202DE9F04F89B008AE002506F8DE
:102A40000D5D654C00903046039301910292D4F8DD
:102A5000088001F0A9F9A0686768D4F80090C3194C
:102A60000133A3EB0903052B5BD800F1010AAE4645
:102A7000AAEB090A04F5836C04F2144601255CE80C
:102A8000003F43EA05024CE8002191F0000FF6D127
:102A900056E8003F43EA050246E8002191F0000FA6
:102AA000F6D107EA000B0BF1030304EB830114F8E2
:102AB00023309B073A4611D10B884988C3F3891309
:102AC00003EB911301331A4400EA020B0BF10303E9
:102AD00004EB830114F823309B07EDD004EB8B0B40
:102AE0000232DBF80C30059303F00303012B6CD0AA
:102AF000022B06D1BDF81630C3F38913033302EB62
:102B0000930256E8003F03EA0E0146E8001B9BF0E3
:102B1000000FF6D10BB1626017460AEB0703052BD5
:102B2000ADD909EA0003033309F1040114F82320A5
:102B30009DF8130042F0030204F82320216001F005
:102B400059F909F1020009F1030109F1010200EA52
:102B50000800009E029F04EB800001EA080102EADF
:102B6000080204EB810104EB820208EA0903C76052
:102B700003330398C860350CD56014F82320C6F3DE
:102B8000001161F3820266F3C50204F8232034F8D1
:102B90002320022161F3891224F82320019954F89B
:102BA000232061F39F221146012060F3010144F8C4
:102BB000232004F8231094F81C341BB1FFF7A4FC65
:102BC0000028FBD109B0BDE8F08FBDF81430C3F385
:102BD00083131A4495E700BFE82C002030B4144D4D
:102BE000D5F81044002154B1237A8B4213D02346E8
:102BF00002E01A7A8A420ED05B68002BF9D101728A
:102C0000D5F810347BB15B684360D5F81034586058
:102C1000084630BC704701310A29E4D14FF0FF313A
:102C2000084630BC7047C5F810044360F0E700BFA9
:102C3000E82C002038B5084BD3F81044012583F860
:102C40001C543CB12368657220465B6898476468F1
:102C5000002CF7D138BD00BFE82C00202DE9F0474B
:102C600084B01D460C9C002394F80C802373EB79F0
:102C700081460E4617460BB3062F0FD8DFE807F044
:102C8000363B414804515E00F168B06896E80C009C
:102C9000019100904946204601F070F9EB792BB97B
:102CA0002B7AEBB93349204601F068F9204601F050
:102CB00059F984F80C8004B0BDE8F0872B7A002B1A
:102CC0004BD1AA792C4BA88853F822A00021FFF7FA
:102CD000D9FB524603462949204601F04FF9CBE77C
:102CE000274A2849204601F049F9DBE749462046B2
:102CF00001F044F9D2E732684946204601F03EF936
:102D0000CCE7494696E80C00204601F037F9C5E7C4
:102D1000B16896E80C0020460091494601F02EF972
:102D2000BCE7B068F768316996E80C0002918DE85D
:102D300081004946204601F021F9AFE77069316909
:102D400096E80C000390B068F76802918DE8810066
:102D50004946204601F012F9A0E7A979A888FFF7B3
:102D6000BDFB094B074953F82020204601F006F926
:102D7000A7E700BFB4A50200B8A50200A0A5020005
:102D8000ACA502009CA5020064A5020008295DD83C
:102D90002DE9F04F1D46914600232A7B2B7383B00B
:102DA00099F80730019207460E46002B4FD0DFF806
:102DB0000CB1DFF80C810024A642414628463DD9DB
:102DC0003A5D013401F0DAF8082CF5D13449DFF826
:102DD000F480DFF8F4B0284601F0D0F8002411E0C8
:102DE00017F804A006F048FA50445946437813F007
:102DF000970F14BF52462E222846013401F0BEF828
:102E0000082C08D0A64241462846E9D8013401F0F2
:102E1000B5F8082CF6D199F8073013B999F80830AD
:102E20004BBB2049284601F0A9F8284601F09AF842
:102E30009DF804302B7303B0BDE8F08F0134594680
:102E4000284601F09BF8082CB6D1BFE7704799F8E7
:102E50000830B3B999F80620134BB9F8040053F8B9
:102E600022400021FFF70EFB224603460F49284669
:102E700001F084F89BE70E4A0E49284601F07EF8DF
:102E8000CFE799F80610B9F80400FFF727FB0A4BC3
:102E9000084953F82020284601F070F8DAE700BF0F
:102EA00094A50200B4A50200B8A50200A0A50200E6
:102EB000ACA502009CA5020064A5020090A502003A
:102EC00088A50200A8A5020098A502002DE9F84FE8
:102ED000254B93F800E0BEF1000F31D0DFF88CB045
:102EE000DFF88CA0DFF88C900024012703E0013488
:102EF000E4B2744524D226B2DBF80050DAF8003090
:102F000015F8360007FA00F1194205EBC608EED0B5
:102F100023EA0103CAF8003002F0E6F915F836603A
:102F2000D9F8003007FA06F52B4000FA06F18B427B
:102F300008D00D4B013493F800E0E4B27445DAD3C5
:102F4000BDE8F88FD8F80430002BF2D098F80110C3
:102F5000A1F10101B1FA81F14909091AB1FA81F12E
:102F6000490930469847E4E7D8310020083200206C
:102F7000043200200032002070B50646114800F0EF
:102F8000BFFD40B9104D01242B68B4401C4203D052
:102F900023EA04042C6070BD304602F0A5F90B4E04
:102FA000326860B122432B68094932601C432C60AF
:102FB000044809680022BDE8704000F04BBD22EAD9
:102FC0000402F0E7E031002004320020003200204B
:102FD000DC310020042A01D8072070472DE9F04198
:102FE00082B088460546174602F028F8002836D0F9
:102FF0001D4C1E481E491F4A1F4B2560002608F124
:10300000FF3480F800800F6016601E60E4B2B8F1F3
:10301000000F1ED0DFF86C80032701E0FF2C18D0D2
:1030200023B205EBC30215F8330093788DF80470D2
:10303000424601A98DF806608DF807608DF80530CD
:1030400002F006F8013CE4B20028E7D002B0BDE887
:10305000F0810A4A0A48002100F0EAFCF6E701F094
:10306000A7FF0028C4D0F1E708320020D8310020A3
:10307000DC3100200032002004320020CD2E02007E
:103080002CA60200792F020070B5084D2B785BB199
:10309000074E00243368012113F8340002F0A8F829
:1030A0002B780134A342F5D8002070BDD831002020
:1030B0000832002000B585B000230390194601AA0C
:1030C00044F20100ADF80430029300F003F805B0BB
:1030D0005DF804FB10B5FFF7ADFDFFF715FA00280A
:1030E000FBD1104C10492088000440F00100FFF78C
:1030F00017FB0E4B1B68DB0700D5FFDE20880C4951
:10310000000440F00200FFF70BFBBFF34F8F0949AB
:10311000094BCA6802F4E0621343CB60BFF34F8FE0
:1031200000BFFDE7142C002030A60200F0ED00E007
:103130003CA6020000ED00E00400FA0559B10AB90E
:1031400009207047531E1A40FAD1826001608380C3
:10315000C260104670470E20704700BF10B48468EC
:10316000C26803468088121B904203D204205DF897
:10317000044B7047DA681C6802400020A154DA68EA
:103180000132DA605DF8044B704700BF0346806887
:10319000DA6890420DD010B498689A881C68024092
:1031A0000020A25C0A709A6801329A605DF8044BB4
:1031B00070470520704700BFF8B5204A204B002516
:1031C000C2F84051C2F84451C2F84851C2F84C51BB
:1031D000C2F80051C2F804511B6813B31949D2F860
:1031E00004450A68A41A1A6824F07F44A2422F46B4
:1031F00009D8197CDE69A41A154499B91EB1334661
:103200001A68A242F5D91049104A0B7812789A42EE
:103210000DD00F490F4A41F823504FF48013C2F8E4
:103220000031F8BD1F745A6998699047E6E7531C4E
:10323000DBB2022B08BF00230B70EAE7001001404D
:103240002C33002028330020253300202433002095
:103250001C33002000E100E02DE9F04F7D4A7E495B
:103260001378097899428BB03BD00133DBB27B49AC
:103270000491022B0D687A49069108BF0023137050
:10328000784A084652F82310D0F80090049A6B1838
:10329000002423F07F434E46AC4613602046274669
:1032A0002546AEB133688B4200F2ED81F468376099
:1032B000C91A1844F3693CB10CEB000E2EF07F42A2
:1032C000F561B460726035461E460124002EE9D1D6
:1032D0002A46B146002C40F0DB8201230793069B6F
:1032E00007E05F4B5D4A0492D3F8009006930022FA
:1032F0000792D3F800A05C4BDFF874C11B780593EC
:10330000049B186800234946CE460893D14609938A
:1033100003934FF0010B17469A46804637B37C68FB
:10332000BD683B46FF695148A4EB080222F07F428A
:10333000824258D815441D60002283F810B05A60AC
:103340009A60DA6100296ED00868854263D90C461C
:1033500003E01068A8424FD21446E2692D1A002AF1
:10336000F7D11D60DA61E361002FD8D10297CDF863
:1033700004E09CF801709CF800200025974200F0C2
:103380008680104600EB40000CEBC000541C9CF8FB
:103390000230E2B204798CF80020934204BF8CF82A
:1033A00000500022022C83684ED0032C40D0012C08
:1033B000E4D11E7C002EE1D1C4685C6005699D608B
:1033C0004269DA6082699A61059A029FDDF804E039
:1033D000002AA8D03446A4EB080224485E6022F0FC
:1033E0007F428242A6D9A8EB040424F07F44AC4279
:1033F00008D22D1B1D609FE7401B10601D60DA6125
:10340000E361B1E7002583F810B01D605D609D6049
:10341000DD6141B10868451B0D609946D9614FF0E7
:10342000010A19467AE7994619464FF0010A75E7ED
:103430000029A3D00022CB690A741946002BFAD1C7
:1034400099464FF0010A94E7D9B19942084615D13F
:1034500010E100BF24330020253300202833002052
:103460002C3300201C33002018330020FEFF7F0087
:103470000C320020A34200F0E8802046C469002CF2
:10348000F8D10E4697421D7431467FF47AAF40461C
:10349000D046CA46DDF80490B8F1000F40F0F48140
:1034A000099B002B40F0ED81089B1BB17B4B9DF8E5
:1034B00014201A70039B13B9494500F04C81002970
:1034C00000F04E81764C049BD4F804051B68754DC2
:1034D0000F682978C21A22F07F420332002951D1A5
:1034E0007149DFF8C8C1DFF8C8E14FF48036C4F88D
:1034F0004463C4F804634FF40036C1F880610E6081
:10350000012626602F21DCF8004000BF00BF00BF6D
:1035100000BF00BF00BF00BF00BF74452FD000BF79
:1035200000BF00BF00BF00BF00BF00BF00BF00BFA3
:1035300000BF00BF00BF00BF00BF00BF00BF00BF93
:1035400000BF00BF00BF00BF00BF00BF00BF00BF83
:1035500000BF00BF00BF00BF00BF00BF00BF00BF73
:1035600000BF00BF00BF00BF00BF00BF00BF00BF63
:1035700000BF00BF00BF00BF00BF00BF00BF0139D8
:10358000C3D12E7097422CBFDB199B18444923F0FE
:103590007F43C1F84035D1F80425121A1B1A22F0D6
:1035A0007F4223F07F4303329A4248D9D1F8043551
:1035B0003E4AC1F8403512683D492F2300BF00BF85
:1035C00000BF00BF00BF00BF00BF00BF8A422FD0B6
:1035D00000BF00BF00BF00BF00BF00BF00BF00BFF3
:1035E00000BF00BF00BF00BF00BF00BF00BF00BFE3
:1035F00000BF00BF00BF00BF00BF00BF00BF00BFD3
:1036000000BF00BF00BF00BF00BF00BF00BF00BFC2
:1036100000BF00BF00BF00BF00BF00BF00BF00BFB2
:1036200000BF00BF00BF00BF00BF00BF00BF00BFA2
:10363000013BC3D11C4B4FF40032C3F80021174AA1
:10364000002313700BB0BDE8F08F834212D00E46FA
:10365000DC69D3F800E0C46134B1226872442260AE
:103660009CF800209CF801700398B14218BF01201B
:10367000039007E7D1F81C90B9F1000F1AD04E461D
:103680004FF0010AE4E72A46B146002C60D15B1AEC
:10369000C9F8003001230793069B2AE6183300205F
:1036A000001001401933002000E100E0342A00201E
:1036B0000024F400784E794CC6F808B0784E4FF0EC
:1036C0002F0E366800BF00BF00BF00BF00BF00BFA5
:1036D00000BF00BFA6422FD000BF00BF00BF00BF89
:1036E00000BF00BF00BF00BF00BF00BF00BF00BFE2
:1036F00000BF00BF00BF00BF00BF00BF00BF00BFD2
:1037000000BF00BF00BF00BF00BF00BF00BF00BFC1
:1037100000BF00BF00BF00BF00BF00BF00BF00BFB1
:1037200000BF00BF00BF00BF00BF00BF00BF00BFA1
:1037300000BF00BF00BF00BFBEF1010EC2D1012615
:1037400034460896C8464E4605940994A2467FE73B
:10375000069806609BE7079B002B3FF470AFAEE630
:103760004D4A504B4E4E4D4C4FF480304FF4003785
:103770000125C3F88070C2F848032F23C2F808035C
:10378000556030681E4600BF00BF00BF00BF00BFCD
:1037900000BF00BF00BFA0422FD000BF00BF00BFCE
:1037A00000BF00BF00BF00BF00BF00BF00BF00BF21
:1037B00000BF00BF00BF00BF00BF00BF00BF00BF11
:1037C00000BF00BF00BF00BF00BF00BF00BF00BF01
:1037D00000BF00BF00BF00BF00BF00BF00BF00BFF1
:1037E00000BF00BF00BF00BF00BF00BF00BF00BFE1
:1037F00000BF00BF00BF00BF00BF013EC3D1956046
:10380000049A116000BF00BF00BF00BF00BF00BF2F
:1038100000BF00BFA0422FD000BF00BF00BF00BF4D
:1038200000BF00BF00BF00BF00BF00BF00BF00BFA0
:1038300000BF00BF00BF00BF00BF00BF00BF00BF90
:1038400000BF00BF00BF00BF00BF00BF00BF00BF80
:1038500000BF00BF00BF00BF00BF00BF00BF00BF70
:1038600000BF00BF00BF00BF00BF00BF00BF00BF60
:1038700000BF00BF00BF00BF013BC3D10A4B19709E
:10388000DDE6049B18600FE6069BC3F800A007E680
:10389000069B1E6021E500BF001001400024F400DB
:1038A000342A002000E100E019330020F0B4564B28
:1038B000564A574E574C4FF480304FF40031012593
:1038C000C2F88010C3F848032F21C3F808035D60D5
:1038D00030680E4600BF00BF00BF00BF00BF00BF82
:1038E00000BF00BFA0422FD000BF00BF00BF00BF7D
:1038F00000BF00BF00BF00BF00BF00BF00BF00BFD0
:1039000000BF00BF00BF00BF00BF00BF00BF00BFBF
:1039100000BF00BF00BF00BF00BF00BF00BF00BFAF
:1039200000BF00BF00BF00BF00BF00BF00BF00BF9F
:1039300000BF00BF00BF00BF00BF00BF00BF00BF8F
:1039400000BF00BF00BF00BF013EC3D19D6000BFEC
:1039500000BF00BF00BF00BF00BF00BF00BFA0424C
:103960002FD000BF00BF00BF00BF00BF00BF00BF1F
:1039700000BF00BF00BF00BF00BF00BF00BF00BF4F
:1039800000BF00BF00BF00BF00BF00BF00BF00BF3F
:1039900000BF00BF00BF00BF00BF00BF00BF00BF2F
:1039A00000BF00BF00BF00BF00BF00BF00BF00BF1F
:1039B00000BF00BF00BF00BF00BF00BF00BF00BF0F
:1039C00000BF0139C3D1144E144D154C1549164F83
:1039D00000203070286020704FF48015E0240B2602
:1039E000087048708E7038701049C2F8805182F8A3
:1039F00014431560C3F8080582F81143D3F8043561
:103A00000B60F0BC704700BF0010014000E100E017
:103A1000342A00200024F400193300202C33002025
:103A2000243300200C3200202533002028330020CE
:103A3000074B9B780BB9082070473AB130B1036847
:103A4000187C0028F7D159745A61704707207047D5
:103A50000C3200202DE9F043264CA37883B01BB92B
:103A6000082003B0BDE8F0830028F9D0042903D86A
:103A7000072003B0BDE8F0834369002BF0D0064671
:103A800002A8737C0025012B00F8015D0CBF89465C
:103A9000A94690460F4600F087F96378A078217810
:103AA0005A1CD2B2904208BF2A4691421BD003EB67
:103AB000430304EBC30301200F4918719E60D1F842
:103AC00004159DF80700D9601F61C3F81490C3F86E
:103AD0001880627000F08EF9084B4FF4801228466F
:103AE000C3F80021BDE79DF8070000F083F904202A
:103AF000B7E700BF0C3200200010014000E100E0F9
:103B000070B51B4CA37882B013B9082002B070BD09
:103B10000028FAD04369002BF7D0064602A80025FA
:103B200000F8015D357400F03FF96278A0782178E3
:103B3000531CDBB2984208BF2B46994212D002EBCD
:103B4000420204EBC20202219DF807009660117147
:103B5000637000F04FF9074B4FF480122846C3F80A
:103B60000021D3E79DF8070000F044F90420CDE7D9
:103B70000C32002000E100E030B50478012C83B065
:103B80001FD010D3022C0CD1C368264926480193BC
:103B900001228DF8004002F09DF8244B68461B6816
:103BA000984703B030BD22492248FFF7EFFA28B307
:103BB00002A8032300F8083D1C4B1B68984703B07C
:103BC00030BD43681C4D19782846FFF7C7FAD8B9AD
:103BD000AA68EB689A4206D002AB144A03F8080DB3
:103BE000126818469047A968EB68AA885B1A9A423F
:103BF00012D2124B01221A7003B030BD01220C49BF
:103C0000094801F0B1FFCCE7084B01908DF8004066
:103C10001B6868469847E6E701220249024802F01D
:103C200059F8BEE758330020242A00203033002002
:103C30005C3300204833002034330020443300201C
:103C40002DE9F0432F4C89B02260002952D00C4658
:103C500080468A882C4809689946FFF76FFA10B1A8
:103C600009B0BDE8F083A289A1682848FFF766FA89
:103C70000028F5D1264D98F810E0D8F80C70D8F847
:103C800008600FCD6C460FC495E80F0098F81150EE
:103C900002971EF1000E18BF4FF0010E002D84E8B0
:103CA0000F00D8F80050D8F804401A4A1A488DF886
:103CB0001C9014BF0E2300238DF815306946D8F8E8
:103CC00014308DF814E0069303968DE8300001F06F
:103CD00015FE0028C4D1D8F80030104A0133107006
:103CE000BED09DF81D304BB101220D490A4801F0AC
:103CF000F1FFB5E7072009B0BDE8F083064802F000
:103D000003F9F1E73033002034330020483300203A
:103D10004CA60200793B0200242A002044330020F4
:103D20005833002070B50B4C01460B482678FFF73E
:103D30002DFA05460EB9284670BD00230122074919
:103D40000748237001F0C6FF0028F4D0FFF7B2F94E
:103D5000284670BD443300203433002058330020FF
:103D6000242A002010B501460C48FFF7F7F9044655
:103D700008B1204610BD0A4801F0A0FF0028F8D184
:103D800008490648FFF702FA0028F2D10122054946
:103D90000348BDE8104001F0E7BE00BF48330020F3
:103DA000242A00205C33002070B4EFF3108472B634
:103DB0000D4B9A68AAB90D490D4E01259D60D1F8A9
:103DC000805035401D60C1F88060D1F884505D603E
:103DD0004FF0FF33C1F88430027004B962B670BC92
:103DE000704701230370F8E7E43B002000E100E0A6
:103DF000FC06FFBD094B9A6872B168B910B4EFF3C5
:103E0000108272B606491C680C605C684C60986051
:103E100002B962B65DF8044B704700BFE43B002076
:103E200000E100E030B482B050E8023F1FFAA3F591
:103E3000C488A54202BFBFF32F8F00220DE0C489C2
:103E400025448489A54228BF2D1BC3EA054540E8C7
:103E50000254002CE8D14FF001028DF803200193A9
:103E6000019B9DF803200B602AB14B880068184421
:103E700002B030BC704702F0FF03184602B030BCFD
:103E8000704700BF0A884B889A4201D000207047D3
:103E900050E8022FC2EA224240E80223002BF7D169
:103EA00001207047B8B130B4416882680468521A82
:103EB000D2B2531E2160DBB242B101680A685C1EB7
:103EC000551C0D601370E3B2FF2BF6D10368002080
:103ED000187130BC70470E20704700BFF0B583B03A
:103EE00002AB002503F8015D04461846FFF75CFFAE
:103EF000236861681A688A4210D9511E19602168C6
:103F0000A3680E6812F8015C0A79278AE0689B1B97
:103F1000DBB29A4207FB050538BF0B719DF807001D
:103F2000FFF768FF284603B0F0BD00BF30B583B08F
:103F300002AB002203F8012D054618460C46FFF798
:103F400033FF2A681368591C1160E9682A8A641AC9
:103F5000B4FBF2F41C709DF80700FFF74BFF03B0B1
:103F600030BD00BF826802B9704710B5044643698E
:103F70000168006998470023A36010BD0EB400B526
:103F800082B0039929B102AA04AB42F8043D00F0C3
:103F900095F802B05DF804EB03B070472DE9F84FD7
:103FA0001746B942884606461D46DDF828B00B9AEA
:103FB0007DD30B464FF00109B3FBF7F39F4209F1A4
:103FC0000109F9D9A94538BFA94612F0010A02D161
:103FD000BBF1000F49D1B268012402E0013D07FBAB
:103FE00004F4012DFAD8B8FBF4F18F42F7D9324D21
:103FF00005E0B4FBF7F4A4B1B8FBF4F1B268685C77
:10400000531CB36033689854B26873689A4204FBD7
:104010001188EED33046FFF7A5FFB4FBF7F4002C70
:10402000EAD1BAF1000F16D0BBF1000F33D0CB4567
:1040300088BF20243ED9B3683268591CB160D4547B
:10404000B26873689A420BF1FF3B06D2BBF1000FD6
:1040500009D0D945EFD1BDE8F88F3046FFF782FF90
:10406000BBF1000FF5D1BDE8F88F93071AD42024D7
:10407000CB45B0D9B2683368511CB1609C54B2686A
:1040800073689A420BF1FF3B07D2BBF1000FA3D03C
:10409000CB45F0D1A0E7BDE8F88F3046FFF762FFCF
:1040A000B268F2E7002D0CBF30242024E0E74FF087
:1040B000010987E7BDE8F88F74A60200002900F027
:1040C0006F822DE9F04F064685B093460C460B787B
:1040D0000DE0B2683168501CB0608B54B2687368F0
:1040E0009A4280F0D3802378002B00F0BA8001340C
:1040F000002B00F0B680252BEBD14FF000082346B3
:1041000014F8012B2D2A00F0BB80302A00F0BB8070
:104110002B2A00F0AD802A2A00F0BC80A2F13005E5
:10412000E9B2092998BF013302D9A9E1A1F130050B
:104130001C4613F8012BA2F1300005EB850109287C
:1041400002EB4101F2D92E2A00F0B080002701E0F5
:1041500014F8012F02F0FB03682BF9D0253A532AFB
:104160007AD8DFE812F07A017900790079007900D5
:104170007900790079007900790079007900790077
:104180007900790079007900790079007900790067
:104190007900790079007900790079007900790057
:1041A0007900790079007900790079007900790047
:1041B0007900790079007900790079007900790037
:1041C0007900790079007900790079006A01790035
:1041D0007900790079007900790079007900790017
:1041E00079005501FC007900790079007900FC0024
:1041F000790079007900790079007900540079001C
:104200007900CA007900BA00790079006A01DBF808
:104210000020131DCBF80030B368156831685A1CB4
:10422000B2604FF03002CA54B3687268934280F0B3
:10423000A0813268581C7821B060D154B26873688C
:104240009A4280F09281002208230192294600932D
:1042500010223046FFF7A2FE01342378002B7FF4B2
:1042600046AF337B002B40F0058105B0BDE8F08FF1
:10427000234614F8012B2D2A48F004087FF445AF9B
:1042800048F001083BE748F0020838E73046FFF7FE
:1042900069FE28E7DBF80020111DCBF80010156837
:1042A0005A782E2A03F101047FF450AF6278A2F10C
:1042B0003003092B04F101044FF000073FF64AAF29
:1042C00007EB870702EB470714F8012FA2F1300331
:1042D000092BA7F13007F3D93CE7DBF800301A1DB2
:1042E000CBF800201968CDF804803B4600950A22DF
:1042F0003046FFF753FE0134AFE7DBF800301A1DFC
:10430000CBF8002018F0010FD3F8009040F0BB80EC
:10431000B9F1000F00F04781484605F001F8074663
:10432000BD4240F2F180002D00F0EE804FF02008F9
:1043300005E0BD4200F0E880002D00F0E580B368A4
:104340003268591CB16002F80380B26873689A42FF
:1043500005F1FF35EDD33046FFF704FEE9E7DBF862
:1043600000301A1DCBF80020D3F8009089EAE973D9
:10437000A3EBE973092B4FF0010A09DD8F4A82FB99
:104380000312DB17C3EBA203092B0AF1010AF5DCC8
:10439000BA4538BFBA462DB3B9F1000F02DB18F0A9
:1043A000040F00D0013D18F0020F40F0F58018F026
:1043B000010F17D1002D00F0FE80AA4538BF202143
:1043C00010D2B2683368501CB0609954B2687368F8
:1043D0009A4205F1FF3580F0E880002D00F0EB8077
:1043E000AA45EED1B9F1000FC0F2C88018F0040F51
:1043F0007BD108F00303022B00F09A808DE82001A6
:104400003B4649460A223046FFF7C8FD013424E7FF
:10441000DBF80020131DCBF80030B3683168127848
:10442000581CB060CA54B26873689A42FFF414AF63
:104430003046FFF797FD01340FE7DBF800301A1D17
:10444000CBF800201968CDF804803B460095102277
:104450003046FFF7A3FD0134FFE6B3683268591C0C
:10446000B1604FF02501D154B26873689A42DFD22F
:104470000134F2E6304605B0BDE8F04FFFF772BDFB
:104480001C4600255FE64F46A7EB090817F8013BDD
:104490008BB1B2683168501CB0608B54B2687368DD
:1044A0009A42F1D33046FFF75DFDA7EB090817F8F4
:1044B000013B002BEDD145457FF6CEAE202705E030
:1044C00045453FF4C9AE002D3FF4C6AEB36832682F
:1044D000591CB160D754B26873689A4205F1FF3530
:1044E000EED33046FFF73EFDEAE7B2683368501C72
:1044F0002B21B0609954B26873689A42FFF479AF87
:104500003046FFF72FFD74E709F1FF3919F8013F35
:10451000002B3FF4A1AEB2683168501CB0608B54E0
:10452000B26873689A42F1D33046FFF71BFDEDE79E
:10453000002F7FF463AF002D33D0AA45BFF45EAFE8
:10454000B2683368511CB1604FF030019954B268C1
:1045500073689A4205F1FF3503D215B3AA45EFD12E
:104560004CE73046FFF7FEFCF7E73046FFF7FAFC72
:1045700069E63046FFF7F6FCB3685AE6B26833687E
:10458000501C2D21B0609954B26873689A42C9F1E9
:104590000009FFF42EAFB3E7002F3FF423AF06E787
:1045A000704700252AE74F46BAE630460391FFF7E9
:1045B000D9FC039911E7002514E700BF676666661A
:1045C00018B103680BB1DB69184770B50B4C0C4D83
:1045D0000C4B2D1BA3FB05352D090CD005EB8505D8
:1045E00004EB850523682046143413B1DB69984732
:1045F00018B9AC42F6D1002070BD70BD8C2C0020E3
:104600008C2C0020CDCCCCCC29DF704728DF704724
:10461000034B187A0122B0FA80F05A7440097047AF
:104620007033002030B5354C237A87B0002B51D041
:10463000334B1B68022222721A79002A2ED0012ADB
:1046400020D019688A68C2B10022059203920192B3
:1046500004929A680592032202921A79002A44D0A1
:10466000012A07D1DA685B690493130302220393DA
:104670008DF804208B6801A898470023237263609B
:1046800007B030BDD8681A691044FFF7BFFFC8B142
:104690001128D6D10123237207B030BD9D695A6914
:1046A000D9681869521BB2F5805F28BF4FF4805259
:1046B0009208012A38BF012229442844FFF7A4FFA9
:1046C0000028E5D1237C002BE6D10146022000F032
:1046D0001DF8E1E70B490C48FFF7A4FB084B1860F5
:1046E00003460028A6D16060D6E71A695B69039289
:1046F00001208DF804000493BCE700BF7033002054
:1047000088330020843300206033002010B5354CFE
:10471000237A012B86B00AD0022B0CD1022810D0AC
:10472000032804D1E3680133082B1CD8E360637CC1
:104730001BB104F081FB06B010BDFFF773FF06B09C
:1047400010BD294B00221B68E2601A79002A3BD079
:10475000012AECD11A69596901328A421A61E6D1FB
:104760000020207205E0204B00221B68E2602272CC
:104770000D2019688A6872B1002205920392019295
:1047800004929A68029005921A79AAB1012A0AD075
:104790008B6801A8984715491548FFF773FB637CA0
:1047A000002BC6D1C9E7DA685B69049313030222C0
:1047B00003938DF80420EBE71A695B6903920120EB
:1047C0008DF804000493E3E79A695969881AB0F5F3
:1047D000805F94BF121802F5805291429A61A6D16F
:1047E000BEE700BF703300208833002084330020F0
:1047F0006033002000F0FD03012B00D0704730B57E
:10480000384CA0F10100B0FA80F0237A4009002270
:1048100087B020746274002B48D0334B1B6802228F
:1048200022721A79002A2ED0012A18D019688A68B3
:1048300082B1002205920392019204929A68059235
:10484000032202921A79002A44D0012A39D08B68B7
:1048500001A8984700232372636007B030BDD86871
:104860001A691044FFF7D2FE28B11128DED10123C6
:10487000237207B030BD237C002BFAD10146022001
:10488000FFF744FFF5E79D695A69D9681869521B1B
:10489000B2F5805F28BF4FF480529208012A38BFDA
:1048A000012229442844FFF7AFFEDDE70F491048F5
:1048B000FFF7B8FA0C4B186003460028AFD16060D0
:1048C000D7E7DA685B6904931303022203938DF838
:1048D0000420BCE71A695B69039201208DF804008B
:1048E0000493B4E770330020883300208433002021
:1048F00060330020FFF7D6BA2DE9F041B0F8108000
:10490000CF1CA8F1040847440646B7FBF8F7FFF7A9
:10491000E5FA80B3FFB200250123013F0446A0F869
:10492000068006600571437128D0804609E06379EE
:10493000AF4203F101036371C8F8000006608046CE
:104940001CD03046FFF7CAFA01350028EFD166794E
:10495000721E16D02346013082421B68FBD81F68A6
:104960004EB1214600250C6801353846FFF7DEFAC6
:10497000AE422146F7D10020BDE8F0812046BDE8D7
:10498000F0812768EDE700BF10B40430012350E840
:10499000002F02EB030140E8001494F0000FF6D161
:1049A0005DF8044B704700BFF8B5021D012152E8C5
:1049B000004FA4EB010342E8003595F0000FF6D15B
:1049C00013F0FF0300D0F8BD4579691E12D00246EE
:1049D000013399421268FBD81768002DF3D00146C5
:1049E00000240E6801343846FFF7A0FAA54231468C
:1049F000F7D1F8BD0768F2E72DE9F843C68804331C
:104A00000F46B3FBF6F5904606FB1533044615B189
:104A1000013D2468FCD1F51A454528BF4546B8F14B
:104A2000000F15D04FF000090433E018A8EB05087B
:104A30002A4607EB090104F03FFC4645A9442468D7
:104A400035464FF0000328BF4546B8F1000FEBD1C3
:104A5000BDE8F8832DE9F843C68804330F46B3FB5D
:104A6000F6F5904606FB1531044615B1013D246864
:104A7000FCD1751A454528BF4546B8F1000F15D041
:104A80004FF0000904312144A8EB05082A4607EB42
:104A9000090004F011FC4645A944246835464FF04E
:104AA000000128BF4546B8F1000FEBD1BDE8F883FF
:104AB00001600B6843604A68934204BF002343606F
:104AC000704700BF436843B1026891680B4443607C
:104AD0005268934204BF00234360704730B4184DBE
:104AE000A5F1F002AB1ADB1003EBD3735B1002EB02
:104AF000C30152F83330984228BF0C4605D311E069
:104B000052F8333098420CD221468B1ADB1003EB5B
:104B1000D3735B10914202EBC304F1D8094830BC57
:104B200070470D46984204D904F10802AA42D9D32D
:104B3000F4E76068034B002808BF1846EFE700BFA2
:104B400094A7020090A6020070B5161E07DD0C4661
:104B50008D1914F8010BFFF705F9A542F9D130467C
:104B600070BD00BF10B50C462046FFF7DBF80528E6
:104B7000FAD0012010BD00BF10B40023012401E0D1
:104B8000202B0AD004FA03F2024299B203F1010386
:104B9000F6D008465DF8044B70474FF6FF710846A3
:104BA0005DF8044B704700BF98B191B130B4023842
:104BB000002402E00134202C0AD030F8025F954234
:104BC000F8D1012233B10B6802FA04F423430B60DD
:104BD00030BC70470B6802FA04F423EA04030B604C
:104BE000F6E700BF70B49DF80C60C0B1B9B1B2B1C6
:104BF0000238002402E00134202C10D030F8025F8B
:104C00009D42F8D1012303FA04F401EB820246B974
:104C1000E4430B68234041F8043B9142F9D170BC56
:104C200070470B68234341F8043B9142F7D00B686F
:104C3000234341F8043B9142F3D1F0E7F0B491B142
:104C400000252B46012606FA03F4144205D000EB9A
:104C5000450431F81370A78001350133202BF2D1C0
:104C60000560F0BC70470D460560F0BC704700BFA2
:104C7000074B1B5C1F2B8ABF064A4FF0A04203F074
:104C80001F03D2F80405D840C04300F0010070476C
:104C9000A0AA020000030050074B1B5C1F2B86BF1D
:104CA00003F01F0305494FF0A041012202FA03F36C
:104CB000C1F80C35704700BFA0AA020000030050E5
:104CC000074B1B5C1F2B86BF03F01F0305494FF0EA
:104CD000A041012202FA03F3C1F80835704700BF72
:104CE000A0AA0200000300504FF0A04310B44FF4FC
:104CF00080404FF400544FF400414FF48032C3F829
:104D00000845C3F80805C3F80815C3F808255DF879
:104D1000044B70474FF0A04310B44FF480404FF461
:104D200000544FF400414FF48032C3F80C45C3F8EF
:104D30000C05C3F80C15C3F80C255DF8044B70473F
:104D40000A4B195C1F298ABF09484FF0A04001F0A7
:104D50001F01D0F8043501228A4022EA03011340E2
:104D6000C0F80815C0F80C35704700BFA0AA0200B3
:104D70000003005030B44FF0A04303224FF400551D
:104D80004FF480444FF400404FF48031C3F834278F
:104D9000C3F83827C3F83C27C3F84027C3F80855A1
:104DA000C3F80845C3F80805C3F8081530BC7047B8
:104DB000074B1B5C1F2B8ABF064A4FF0A04203F033
:104DC0001F03D2F81005D840C04300F0010070471F
:104DD0009CAA0200000300500B2809D00C2809D01F
:104DE000182809D019280CBF03204FF0FF30704756
:104DF000002070470120704702207047014B185C6B
:104E0000704700BF9CAA020058B910B5054CA368B2
:104E100033B10CCB0020A2609847A368002BF8D1D7
:104E200010BD70478C33002010B5012882B029D006
:104E300022D303281ED10721002000F091F802A8F8
:104E40000023264C00F8013DFEF7AEFFE368013B6E
:104E5000E360E36853B9224B01221A604FF08042AD
:104E6000D2F8183413F48033FAD1A3709DF80700F8
:104E7000FEF7C0FF02B010BD1A4B0122C3F880201C
:104E800002B010BD02A80023144C00F8013DFEF74B
:104E90008BFF237853B1E3689DF8070001330122AB
:104EA000E360A270FEF7A6FF02B010BD0D4A63607A
:104EB000A3602361E360106810F001000AD004F0E1
:104EC00023F820B94FF080430122C3F818250123AD
:104ED0002370E0E7072100F043F8F0E78C3300206F
:104EE0000C00004000E100E010B51A4B1A6882B0D7
:104EF000A2B100221A601B6800934FF08043012288
:104F0000154C0099C3F80823A368627033B10CCB29
:104F10000020A2609847A368002BF8D10F4B1A68B5
:104F2000AAB100221A601B6801934FF0804302224D
:104F3000094C0199C3F8082323690122A27033B1F7
:104F40000CCB0120226198472369002BF8D102B0D5
:104F500010BD00BF000100408C3300200401004060
:104F6000002810B418DB00F1604303F561434901E8
:104F7000C9B283F80013C3B24009800000F1604059
:104F800000F5614003F01F0201239340C0F8803117
:104F900003605DF8044B7047C3B2044A03F00F048A
:104FA00049012244C9B21176E6E700BFFCEC00E0FB
:104FB00030B51F4C94F8645083B015B1082003B08D
:104FC00030BD4FF0FF33FF220721062023636363C8
:104FD000A363E36323646364A364E3642365636599
:104FE000A365E36523606360A360E360236163619D
:104FF000A361E361236284F860306362A36284F892
:105000006230E36284F8633084F86120FFF7A8FF20
:10501000084B094A1D601B68019301984FF000433B
:105020000121284684F86410C2F8043303B030BD6F
:10503000A03300207C61004000600040034B93F8E7
:105040006400003018BF0120704700BFA03300206B
:10505000F0B5654C251895F93030002B01DB0820A0
:10506000F0BD91F803E0BEF1000F50D0236801338A
:1050700000F0B4800826012554F8253001334CD0C7
:105080006B1C54F82370013748D0AB1CB3423CD2A0
:1050900054F82370013741D0EB1CB34235D254F899
:1050A000237001373AD02B1DB3422ED254F823700F
:1050B000013733D06B1DB34227D254F82370013728
:1050C0002CD0AB1DB34220D254F82370013725D029
:1050D000EB1DB34219D254F8237001371ED005F1ED
:1050E0000803B34211D254F82370013716D005F1EA
:1050F0000903B34209D254F8237001370ED00A35A0
:10510000B54202D2E36A013366D00420F0BD236ABF
:1051100001333BD00C260925AEE72B4626185DB29D
:1051200044F8232086F830503246BEF1000F33D0C9
:105130008B78D3B91F284A7887BF2C4E00F01F0305
:1051400003464FF0A04603F5E073920046F8232093
:10515000CB782BBB083D2C44097894F8602042EAB8
:10516000811284F860201846F0BD1F2887BF1F4BAE
:1051700000F01F0202464FF0A04303EB8203D3F876
:10518000002722F00202C3F80027E1E7082685F88D
:105190003060334622623546234483F85800C7E71F
:1051A000AB0003F1804303F5C0430978D3F8104501
:1051B00024F44F3424F44074C3F810450202090467
:1051C000D3F8100501F4403102F47C520A43024343
:1051D000C3F810250020F0BD0B239FE7002385F8BE
:1051E000303022601D46A3E7A033002000030050AA
:1051F000F0B43A4D2E1882B096F93030072B20DDEE
:105200002B4493F858309B09032B45D0012B14BF36
:105210004FF440314FF400311F284DD900F01F00EA
:105220002F4B03EB8000D0F8002722F44032C0F867
:105230000027D0F800370B43C0F8003702B0F0BCAD
:105240007047DAB2072AF9D8980000F1804000F5DB
:10525000C04003F140029200D0F8104592B202F132
:105260008042002744F0010402F5C042C0F8104516
:105270000197019817600029E0D096F9302055F881
:105280002220002ADAD00122164902FA03F3C1F8DB
:10529000043302B0F0BC70471F2810D9104BD3F86C
:1052A000103500F01F00C340DB0748BF4FF440310A
:1052B000B6D44FF40031B3E74FF0A043B1E74FF05D
:1052C000A0421346D2F81025C24012F0010F14BFBD
:1052D0004FF440314FF40031A3E700BFA03300206A
:1052E00000030050006000401F288ABF054B4FF0AC
:1052F000A04300F01F00D3F8103523FA00F000F0AF
:1053000001007047000300502DE9F04788B00023EA
:10531000CB4A039302931168012900F0A8821E462C
:10532000C84B1A68012A00F09482C74B1A68012AF8
:1053300000F08182C54B1A68012A00F06E82C44BCE
:105340001A68012A00F05B82C24B1A68012A00F039
:105350004882C14B1A68012A00F03582BF4B1A6897
:10536000012A00F02282BE4B1A68012A00F00C824A
:1053700016F0FF0F1AD0BB4F01250024A30003F144
:1053800080432E4203F5C0434FEA45050BD0D3F8C6
:10539000100557F82420D3F81015C0F30520C1F3E9
:1053A000014102B190470134082CE7D1002E02DB05
:1053B00008B0BDE8F0870DF1100800224FF0FF3370
:1053C000A84CA94FC8F8042004920693079301261D
:1053D00094F960305A1C21D05FFA83FE2EF0C00091
:1053E00008AB4FEAD00903EB090C0EF007031CF8D9
:1053F000082C06FA03F31A4040F0388194F9611042
:10540000481C00F06A8215460DE0022A06D10329E5
:1054100000F06082002D00F03682A84794F96110F8
:105420004A1C51D00025CBB223F0C00008AA4FEA95
:10543000D00C02EB0C0E03F007011EF8082C06FA44
:1054400001F912EA090F4CD194F96210481C11D0ED
:10545000CBB223F0C00008AA4FEAD00C02EB0C0E2E
:1054600003F007011EF8082C06FA01F912EA090FE9
:1054700040F0AD8094F963305A1C0FD0DBB223F0BA
:10548000C00008AA4FEAD00C02EB0C0E03F0070292
:105490001EF8081C06FA02F211425AD1002D87D0DC
:1054A0004FF0A0430299D3F81035D7F81025994250
:1054B00003D1039991423FF47BAF0498059902937D
:1054C00003920690079183E794F962104B1C01D078
:1054D0000025BDE794F963305D1C3FF469AF0025FA
:1054E000CCE72218990992F9302054F82220002A9A
:1054F00000F02381032900F023811F2800F20C8192
:1055000084464FF0A04303EB8C031EF818CCD3F86D
:1055100000E71CEA090FCEF3014E40F0F380BEF124
:10552000030F91D103290FD14FF4003ED3F800C7E8
:105530002CF4403CC3F800C7D3F800C701354EEA4D
:105540000C0EEDB2C3F800E7002A3FF47DAF9047A0
:105550007AE704EB0009990999F9309054F82990F9
:10556000B9F1000F00F0FD80032900F0FD801F2835
:105570008BBFBC464FF0A04C03F01F0303460CEB5F
:1055800083031EF818CCD3F800E71CEA020FCEF311
:10559000014E40F0A680BEF1030F7FF47FAF0329D8
:1055A00040F0A6804FF40032D3F800E72EF4403EDE
:1055B000C3F800E7D3F800E7013542EA0E02EDB286
:1055C000C3F80027B9F1000F40F0968068E7221871
:1055D000990992F9302054F82220002A00F0B7806F
:1055E000032900F0B7801F2800F2A38084464FF003
:1055F000A04303EB8C031EF818CCD3F800E71CEA99
:10560000090FCEF3014E40F08B80BEF1030F7FF403
:1056100031AF03290FD14FF4003ED3F800C72CF46B
:10562000403CC3F800C7D3F800C701354EEA0C0E62
:10563000EDB2C3F800E7002A3FF41CAF904719E72A
:105640000061004004610040086100400C610040BE
:105650001061004014610040186100401C6100406E
:105660007C610040A03300200003005022184FEA64
:105670009E1192F9302054F82250002D7BD003293E
:105680007CD01F283AD802464FF0A04E0EEB820E77
:105690001CF8189CDEF8002719EA0309C2F301423E
:1056A0007FF4B3AE032A7FF4B9AE03297FF4B2AE20
:1056B0004FF40032DEF8003723F44033CEF80037E1
:1056C000DEF800371343CEF80037002D00F0ED80F0
:1056D0000321A84794F961104B1C00F0EB800125D1
:1056E000A1E6BEF1020F7FF4D9AE032900F0EF80EE
:1056F000B9F1000F3FF4D2AEC847CFE60EF01F025B
:10570000BE46C3E7BEF1020F7FF49EAE03297FF4CD
:105710001BAF4FF4403E09E703F01F0C3B46F2E697
:10572000BEF1020F7FF4A6AE032984D14FF4403EB0
:1057300073E703F01F0C3B465BE703297FF484AE5D
:1057400018F80CA04AEA090A08F80CA0D5E60329C3
:105750007FF490AE18F80CA04AEA090A08F80CA0E9
:1057600041E703297FF49AAE18F80CA04AEA020A2E
:1057700008F80CA0FBE6032940F0858018F8092002
:105780001A4308F809207CE700221A601B6801937D
:105790004FF0A042019BD2F81025564B0292D3F84D
:1057A0001035039346F00046E2E5534AD2F804234D
:1057B00011067FF5D8AD00221A601B680093009B8C
:1057C00046F08006CFE54C4AD2F8042350067FF518
:1057D000C5AD00221A601B680093009B46F040068E
:1057E000BCE5454AD2F8042394067FF5B2AD002209
:1057F0001A601B680093009B46F02006A9E53E4A0C
:10580000D2F80423D5067FF59FAD00221A601B68ED
:105810000093009B46F0100696E5374AD2F8042321
:1058200017077FF58CAD00221A601B680093009B60
:1058300046F0080683E5304AD2F8042352077FF584
:1058400079AD00221A601B680093009B46F00406A5
:1058500070E5294AD2F8042391077FF566AD00224E
:105860001A601B680093009B46F002065DE5224922
:10587000D1F8046316F001063FF452AD13601368CB
:105880000093009B4CE594F961104B1C7FF4CBAD69
:1058900094F96210481C7FF4DBAD94F963305A1C14
:1058A0007FF4ECAD08B0BDE8F08794F961104D1CB1
:1058B0007FF415AF94F96210481C01D00125C7E5AB
:1058C00094F96330591C3FF4EBAD0125D6E54FF454
:1058D000403269E64FF44032ECE694F962104B1C1A
:1058E00001D01546B4E594F963305D1C3FF460AD1A
:1058F0001546C3E50003005000600040F0B5047990
:10590000954E6401331987B0DD7E15B1082007B0CC
:10591000F0BD4D7F1D770B685F1C19D01F2B4FF01A
:1059200001058ABF8D4F4FF0A04703F01F0305FA12
:1059300003F3C7F808350B681F2B86BF03F01F035E
:10594000864D4FF0A04503F5E073032745F823701B
:105950004B685D1C0BD01F2B86BF03F01F037F4DD0
:105960004FF0A04503F5E073002745F82370037955
:1059700006EB43131B7F002B4CD003688D69C3F8E3
:1059800024550F7D4B7D05683B43C5F86C35036896
:105990000F684D68C3F80C75C3F814550B7D012BC7
:1059A00000F0AB80331905465A600B693351EAB1F8
:1059B0000379097F026806EB43131B7F002B76D126
:1059C000C2F81C31D2F81C712A680097009FC2F8F7
:1059D0004431D2F844212B6861480192019AC3F8FE
:1059E0000403286840F30730FFF7BAFA2B792A68D6
:1059F00006EB43131B7F002B55D00823C2F800355C
:105A0000344400200123E376E0752076A075A0766B
:105A100007B0F0BD03688D69C3F824550F7D4B7D39
:105A200005683B43C5F86C3591E8A0000368C3F8EE
:105A30001475C3F80C550B7D012BB3D18B685F1C1B
:105A40000BD01F2B86BF03F01F03444D4FF0A04522
:105A500003F5E073002745F82370CB685D1C1BD06D
:105A60001F2B4FF001058ABF3C4F4FF0A04703F0BA
:105A70001F0305FA03F3C7F80835CB681F2B88BF4F
:105A800003F01F0303F5E0738CBF344D4FF0A045C6
:105A9000032745F82370CB6805688F68C5F808357B
:105AA000C5F810757EE70423C2F80035A8E7002387
:105AB000C2F81031D2F810712A680297029FC2F81A
:105AC0002031D2F820712A680397039FC2F824314D
:105AD000D2F824712A680497049FC2F84431D2F89E
:105AE00044212B6805921F48059AC3F804032868CF
:105AF00040F30730FFF734FA78E78B685F1C0BD070
:105B00001F2B86BF03F01F03144D4FF0A04503F574
:105B1000E073002745F82370CB685D1CBCD01F2BB9
:105B20008ABF0E4F4FF0A04703F01F03012505FA6F
:105B300003F3C7F80835CB681F2B88BF03F01F039A
:105B400003F5E0738CBF054F4FF0A047032547F8DE
:105B50002350CB68A0E700BF0834002000030050AA
:105B60008000020010030200F0B50379524C5B0183
:105B7000E51887B02D7F3DB101F06045B5F1005FBC
:105B800002D0102007B0F0BD23449E7D16B1112035
:105B900007B0F0BD9A7599609E8205796D01621912
:105BA000137F13BB0168C1F81C31D1F81C61016877
:105BB00004960126049F8E600168D2F808E0C1F8BF
:105BC0001C31D1F81C310593059B968A938A57683E
:105BD000B6B201331EF806609BB29382C1F81C6511
:105BE000002F2FD0002007B0F0BD03689168C3F8E4
:105BF0002061D3F8207103680197019FC3F85861B1
:105C0000D3F8586103680296967D029FC3F8441545
:105C1000C3F848650368012199605368002BE1D1FE
:105C2000036801E0002945D1D3F82021D3F85811A9
:105C3000002AF7D0002914BF0F2000202C44002395
:105C4000A3759FE7967D938A9BB29E4202F1140151
:105C500022D9016804E0938A9BB2B3F5807F03D018
:105C6000D1F81C31002BF6D0938A9BB2B3F5807F1C
:105C7000E9D0C1F81C71D1F81C310393039BB2F831
:105C800014C0938A1FFA8CFC01331EF80CC09BB21F
:105C90009382C1F81CC5D6E70B889BB2B3F5807F11
:105CA00008D00268D2F81C31002BFBD00123D3604E
:105CB0000020C3E70F20C1E7083400200279044B1D
:105CC00003EB4213987D003018BF0120704700BFDE
:105CD00008340020F0B403798A4E5B01F41888B0D0
:105CE000257F45B101F06045B5F1005F54D010202B
:105CF00008B0F0BC70476568002D3FD13344DC7DAF
:105D000054BBDA75D9605C761C7605796D01731920
:105D10001F7F002F4DD19B7E8BB984B90368C3F8D8
:105D20002441D3F8242103680392039AC3F808415D
:105D3000D3F8082103680492012204991A607219A9
:105D40005368002B6BD003684FF401720020C3F836
:105D5000042308B0F0BC70471C7ECCB1002D00F0CD
:105D6000AA80037906EB4316337F002B50D00368DB
:105D70004FF40472C3F804231120B9E704684FF408
:105D800001773344C4F80873DC7D002CB9D0E3E715
:105D900019611A760124B8E76568002DAED0046851
:105DA0004FF404773344C4F80873DC7D002CA8D08A
:105DB000D2E703680025C3F81051D3F810710368C7
:105DC0000197019FC3F84451D3F8445103680295E9
:105DD000029DC3F83415C3F838258CB90368012235
:105DE0001A6002795201B3185B68002B65D0036812
:105DF0004FF404720020C3F8042308B0F0BC7047CD
:105E00000268D2F8003243F02003C2F80032E8E71B
:105E100003684FF40172C3F80423112068E7016896
:105E2000C1F84431D1F844310593059B0368D3F898
:105E30002471D3F80841D3F8441144B9002933D16F
:105E4000002FF4D035440023EB75032050E7002FDA
:105E5000F8D159BBD47DECB1C3F80811D3F80811BF
:105E600006910699D468517ED3F818356354537E51
:105E7000D17D0133DBB25376537E9942D6D8354477
:105E80000022AB7EEA75002B37D003680121104653
:105E900019602DE7C3F80841D3F808110791079955
:105EA000D3F81835537EEAE7002FCBD135440023D1
:105EB000EB750F201CE711201AE7036801E0A4B975
:105EC000B8B9D3F81011D3F84441D3F8240100290C
:105ED000F5D000284FF00003324414BF03201846C9
:105EE0009C42D37518BF0F2002E732440F20D175B2
:105EF000FEE632440320D475FAE602680121184612
:105F00005160F5E608340020114A037902EB43138F
:105F1000197FD9B99B7ECBB910B4016883B0C1F8A1
:105F20002431D1F8244101680094009CC1F8083163
:105F3000D1F80831016801930123019C0B600179BC
:105F400002EB4112937603B05DF8044B704700BF3B
:105F50000834002070B5A54C237F8EB0002B73D180
:105F6000A34AD2F80413890546D4A14BD3F80423DD
:105F7000520704D5D3F80821002A40F0C9809C4B71
:105F8000D3F81C21BAB1A28AA17D92B28A424FF005
:105F90000002C3F81C2180F0A880D3F81C210692CF
:105FA000069AA18AA28AA06889B20132415C92B2A3
:105FB000A282C3F81C158E4BD3F84421D2B1002223
:105FC000C3F84421D3F84411A27E04910499002A15
:105FD00040F08880E37D6BB10023617EE268E37569
:105FE00001238DF830108DF828300B9294E80A00C8
:105FF0000AA898470EB070BDD2F824110029B4D079
:10600000C2F82431D2F82411A37E07914FF4017114
:106010000798C2F808130BB901235360744A02238E
:106020008DF82830D2F88034C2F88034E07DE26800
:106030000D9300238DF83000E375237621680B92D1
:1060400063680AA898479AE7694BD3F82421002A85
:1060500040F09280D3F8101161B1C3F81021D3F849
:10606000101103910399D3F83C15E07DC9B2884221
:1060700000F0A4805E4BD3F84421B2B10022C3F8F3
:106080004421D3F84401E17D0190019869B1D3F82E
:106090003C35E1688DF8303001230B918DF82830C4
:1060A000E27594E80A000AA89847514BD3F82021DA
:1060B000002A9FD00022C3F82021D3F82001A17D1F
:1060C00000900098002995D0D3F84C15A3688DF85E
:1060D00030100B938DF82820A27594E80A000AA8C6
:1060E000984787E701221A6074E7D3F81C310593BB
:1060F000059B00293FF45FAFA3688DF830100B9328
:106100008DF82820A27594E80A000AA8984752E75B
:10611000E27D002A6ED00022C3F80821D3F80821BE
:106120000892089AE168627ED3F818358B54637E32
:10613000E27D0133DBB26376637E93427FF41FAF6F
:10614000237E002B6CD1A37E13B9294B01225A6008
:10615000274AE06863684FF40171C2F80813627E51
:106160008DF83020002501220B902168E5758DF80F
:1061700028200AA8984702E70022C3F82421D3F870
:106180002411029102218DF828100299D3F880146D
:10619000C3F880140D91D3F83C15E368E2752276BC
:1061A0008DF830100B93216863680AA89847104B4C
:1061B000D3F84421002A3FF478AF5FE7217E11B382
:1061C000D3F80062E568E17526F02006C3F80062A6
:1061D00026698DF8300001238DF828302276216859
:1061E0000B95E66063680AA8984743E708340020E7
:1061F00000200040C3F80821D3F80811099109993B
:10620000D3F8183598E7E268E17501238DF830007E
:106210008DF828300B9294E80A000AA8984729E7DD
:10622000607EE5682169E375012200238DF8300066
:10623000E160237663760B958DF8282094E80A00B8
:106240000AA898479BE600BF0220FEF779BD00BF71
:106250002DE9F0470D460646FEF7BEFD03281ED881
:10626000012D04461FD00ED3022D1AD11C4B00EB7A
:1062700040041C44657895B11A4B1B687BB12846D5
:10628000BDE8F04718471848FDF73AFC144B174A89
:1062900004EB44010B44125D9D78AA42EBD0BDE8AB
:1062A000F087BDE8F0870E4F4FEA400808EB000387
:1062B000FA18FD5C53782BB9A04447440B4BBA78CD
:1062C0001A55D8E7DFF8289007484A464FF40041AE
:1062D000FDF7C0FB0028EFD189F80060ECE700BFB4
:1062E0006C340020A03400204C340020A83400205E
:1062F0002834002010B50078FEF76EFD03280BD877
:10630000064B00EB40001844407828B1044B1B6852
:1063100013B1BDE81040184710BD00BF6C34002019
:10632000A0340020B34B1B68DB0700D4704770B566
:10633000B14EB24D33782C78FBB9172C1CD8DFE85E
:1063400014F0F1001401140163007600830096003C
:106350005D0039002C0039002C00A300A800A80023
:10636000A800A800A800CE00DE0001014600180029
:106370001800FEF7CFFC2C7070BDA14B1B780020DD
:106380003070002B00F00581FEF79AFC0120FEF72B
:1063900097FC0320FEF794FCCFE7012318463370E7
:1063A000FEF7CEFC00224FF480419648BDE87040D5
:1063B000FDF750BB012318463370FEF7C1FC0022E5
:1063C00040F6CD418F48BDE87040FDF743BB8C4B94
:1063D0001B78002B00F0FE800020FEF771FC0120EE
:1063E000FEF76EFC0320FEF76BFC0020FEF754FC6A
:1063F0000120FEF751FC15232B7070BD0020FEF725
:106400004BFC07232B7070BD0020FEF731FC0028E9
:1064100000F0D3800020FEF753FC46F266610323B0
:106420002B7000227748BDE87040FDF713BB0020B9
:10643000FEF71EFC002800F0C5800020FEF740FC9F
:106440004FF400310423EBE70020FEF711FC002895
:1064500000F0BD800020FEF733FC05232B700022E6
:1064600041F69A116748BDE87040FDF7F3BA002085
:10647000FEF766FC06232B70002240F6CD416148F2
:10648000BDE87040FDF7E6BAFEF744FC0C232B7024
:1064900070BD5D48FDF734FBD4F1110405467BD097
:1064A000002879D1012C13D0C82303FB04F44FF446
:1064B000FA704FF400430021C3FB04014FF47A72D9
:1064C000002303F0A9FE2A4601464F48FDF7C2FA11
:1064D0000220FEF7E1FB4A4B01221A7070BD484BC7
:1064E0001B78002B79D00020FEF7EAFB0120FEF795
:1064F000E7FB0320FEF7E4FB12232B7070BD404B3B
:106500001B78002B6FD00020FEF7DAFB0120FEF78E
:10651000D7FB0320FEF7D4FB0020FEF7BDFB1323BF
:106520002B7070BD364B1B78002B59D00020FEF726
:10653000C7FB0120FEF7C4FB0320FEF7C1FB0023CD
:106540002B7070BD2E4B1B78002B4FD00020FEF718
:10655000B7FB0120FEF7B4FB0320FEF7B1FB0120DF
:10656000FEF79AFB14232B7070BD0020FEF780FB12
:10657000C8B10020FEF7A4FB022C4EF2666118BFE2
:106580004FF400312C7000221E48BDE87040FDF72A
:1065900061BAFEF7A9FBD0E60220FEF791FB184B8B
:1065A00000221A7070BDFEF777FB43F2333141F6DB
:1065B0009A13022C08BF1946E4E7FEF76DFB41F67B
:1065C0009A112CE7FEF768FB43F233313AE7FEF706
:1065D00063FB42E7FEF788FB07E7FEF785FB8BE7E7
:1065E000FEF782FBABE7FEF77FFB95E7FEF77CFB50
:1065F000B5E700BF783400207C340020A4340020AC
:1066000029340020803400202C340020FEF7D0BB39
:1066100038B5C44B1C6814F0010401D1204638BDC4
:10662000C14C23780546E3B9172D00F27881DFE8E5
:1066300015F00B013101310169007D009100A500C9
:106640005B003500280035002800B300BA00BA000E
:10665000BA00BA00BA00E300F6001C014200630071
:106660006300B24B1B7800202070002B00F02781C4
:10667000FEF726FB0120FEF723FB0320FEF720FB9D
:10668000D2E7012318462370FEF75AFB00224FF48D
:106690008041A748BDE83840FDF7DCB90123184622
:1066A0002370FEF74DFB002240F6CD41A048BDE827
:1066B0003840FDF7CFB99D4B1B78002B00F02081AF
:1066C0000020FEF7FDFA0120FEF7FAFA0320FEF79C
:1066D000F7FA0020FEF7E0FA0120FEF7DDFA954B0D
:1066E00015221A70002499E70020FEF7D5FA914B85
:1066F00007221A70002491E7FEF70CFB8D4B002453
:106700001D708BE70020FEF7B3FA002800F0E1804F
:106710000020FEF7D5FA46F26661864B84480324D2
:106720001C700022BDE83840FDF794B90020FEF748
:106730009FFA002800F0DC800020FEF7C1FA4FF439
:1067400000317C4B7A4804241C700022BDE838409C
:10675000FDF780B90020FEF78BFA002800F0CD800D
:106760000020FEF7ADFA734B714805241C7000221F
:1067700041F69A11BDE83840FDF76CB90020FEF7EC
:10678000DFFA6C4B6A4806241C70002240F6CD41AB
:10679000BDE83840FDF75EB9FEF7BCFA654B0C2248
:1067A0001A7000243AE76448FDF7AAF90446D5F1C7
:1067B000110000F08780002C40F08480012814D064
:1067C000C82505FB00F54FF400434FF4FA70002193
:1067D000C3FB05014FF47A72002303F01DFD22462E
:1067E00001465548FDF736F904460220FEF754FAF3
:1067F0004E4B01221A7011E74C4B1B78002B00F016
:1068000082800020FEF75CFA0120FEF759FA03208F
:10681000FEF756FA474B12221A700024FEE6434B4D
:106820001B78002B75D00020FEF74AFA0120FEF7F6
:1068300047FA0320FEF744FA0020FEF72DFA3D4BFD
:1068400013221A700024E9E6384B1B78002B5DD028
:106850000020FEF735FA0120FEF732FA0320FEF79A
:106860002FFA344B00241C70D8E6304B1B78002BD9
:1068700052D00020FEF724FA0120FEF721FA03206F
:10688000FEF71EFA0120FEF707FA2A4B14221A70AF
:106890000024C3E60020FEF7EBF9F8B10020FEF774
:1068A0000FFA022D4EF2666118BF4FF40031214BF2
:1068B0001F481D700022BDE83840FDF7CBB8FEF739
:1068C00013FAB1E60220FEF7FBF9184B00221A700A
:1068D000A4E6FEF7E1F941F69A111EE7FEF7DCF9AE
:1068E00043F2333141F69A13022D08BF1946DEE711
:1068F000FEF7D2F943F2333123E7FEF7CDF932E761
:10690000FEF7F2F9E5E6FEF7EFF983E7FEF7ECF9BB
:10691000A7E7FEF7E9F98FE7FEF7E6F9B2E700240B
:106920007CE600BF783400207C340020293400202D
:1069300080340020A43400202C340020F0B5204AFC
:10694000204B1060044610F0020083B0196013D091
:106950001D4B1E480E210F2710261125197040F2DD
:1069600066620421DF709E715D72FCF733FBA0B19B
:10697000E3071DD403B0F0BDE20719D4144A15484B
:106980000021FDF755F80028F4D1134A13480121DE
:1069900003B0BDE8F040FDF74BB8FCF775FB0028ED
:1069A000E6D101460E4A0F48FDF742F8E10703D54C
:1069B0000190FEF7DFF901980028DFD003B0F0BDA9
:1069C00078340020A03400206C340020BCAA0200DF
:1069D00025630200E4AA020049620200DCAA020068
:1069E000F5620200E0AA0200032801D907207047DF
:1069F000012A12D0012917D008D30229F6D10D4B54
:106A000000EB4000034400205A707047094B00EB34
:106A10004000034400209A707047012901D00022F1
:106A2000E8E700F10E02D2B200EB4003014900207A
:106A3000CA5470476C34002008B5FEF7DFF91F28F0
:106A400086BF0A4B00F01F004FF0A04303EB80030A
:106A50000020D3F8002722F44032C3F80027D3F8EF
:106A6000002742F44032C3F8002708BD000300505D
:106A700010B50388102B08D0112B05D1264B1868B0
:106A80000138186038B110BD10BD234C216881B1A8
:106A90000131216010BD01220221FFF7A5FF48B39B
:106AA000072827D01D4B1B68002BECD0BDE81040F9
:106AB000184701220846FFF797FF48B1072807D07B
:106AC000164B1B6803B1984721680131216010BD46
:106AD000072202210120FFF787FF08B10728EFD125
:106AE000042202210020FFF77FFF0028ECD00728B6
:106AF000E6D1E9E7072202210120FFF775FF08B17F
:106B00000728CFD1002108460A22FFF76DFF002891
:106B1000B9D00728C6D110BDB0340020AC34002055
:106B200008B50020FFF788FF10B1062800D008BD87
:106B30000120FFF781FF0028F9D0062808BF0020B8
:106B400008BD00BF194B10B5186031B101200C46CB
:106B5000FFF75CFD30B102232370154B186848B174
:106B6000002010BDFFF752FDE8B9114B20701868E6
:106B70000028F5D101220221FFF736FF08B10728CE
:106B8000EFD1072202210120FFF72EFF08B10728CD
:106B9000E7D1002108460A22FFF726FF0028DFD0B0
:106BA0000728DED1DCE70B232370D6E7AC340020C6
:106BB000B034002076DF70477ADF70477CDF7047A3
:106BC0007FDF704790DF7047A8DF7047A9DF70470D
:106BD00066DF704732DF70473EDF7047FCF76ABA06
:106BE00010B50388013B84B00446552B3DD8DFE83F
:106BF00003F0763C3C3C3C3C3C3C3C3C3C3C3C3C20
:106C00003C2B7D3C8B3C3C3C3C3C3C3C3C3C3C3C45
:106C10003C3C3C483C3C3C3C3C3C3C3C3C3C3C3CA8
:106C20003C3C3C3C3C3C3C3C3C3C3C3C3E3C3C3CA2
:106C30003C3C3C3C3C3C3C3C3C3C3C3C3C3C3C3C94
:106C40003C3C556C3C3C3C3E344B35491888000478
:106C500040F00300FBF764FD0720FFF7D9FC08B103
:106C6000FCF728FA2F4BA2881A8004B010BD808848
:106C70001321FFF79FFF0028F7D0FCF71BFA04B0A1
:106C800010BD08220021684602F021FB6946A08859
:106C90000022FFF797FF0028E7D0EEE78379002B6B
:106CA000E3D0827B043A022ADFD8022B18BF0123EB
:106CB0008DF8003080884FF4C1736946ADF8043018
:106CC000FFF782FF0028D0D0D7E7164A00231088AC
:106CD00019461A46FFF77AFF0028C6D0CDE780880C
:106CE0000021FFF775FF0028BFD0C6E70B4B0E4908
:106CF0001888000440F00300FBF712FD094B4FF623
:106D0000FF721A8004B010BD064A00231088852146
:106D10001A46FFF755FF0028A7D0AEE7142C002035
:106D200000AB0200322A00200CAB02000D4B4A8857
:106D30001B889A4200D070470A8840F677239A420F
:106D4000F9D130B4084B8C881888084D0849033CA9
:106D5000A4B20004234622462C8040F0030030BC3D
:106D6000FBF768BE322A0020142C0020302A0020B5
:106D70001CAB020008B5037803B108BD054B3B21ED
:106D80001888FFF717FF0028F7D0BDE80840FCF788
:106D900091B900BF322A0020072808B51CD00A2864
:106DA0000ED0042800D008BD154B13211888FFF71A
:106DB00001FF30F00803F6D0BDE80840FCF77AB9CF
:106DC0000020FFF725FCB8B9FFF7AAFE88B9FFF746
:106DD00001FF0028F0D108BD094B1A884FF6FF7358
:106DE0009A42E0D1074801F0CDF930F00803DAD03B
:106DF000E2E7FCF75FF9EAE7FCF75CF9E4E700BFDC
:106E0000322A0020AC35002070B50378012B82B007
:106E100002D006D3022B02D14068FCF74BF902B036
:106E200070BD154C154D20782844FCF77BFF237866
:106E30000133DBB21D44237015F8012C0A2A03D05C
:106E40000F4A12889A42EAD80C4E0E4DADF8063021
:106E50000DF106023146284601F044FF082802D011
:106E6000112804D028B90023237002B070BD237804
:106E7000ECE7FCF71FF9F6E7A8350020B434002052
:106E8000302A0020983600202DE9F0410578A5B978
:106E9000838906466BB3DFF86480174FB368585D8B
:106EA000FCF760FF0446A8B9B3890135AB42F5D8B9
:106EB000013BB268D35C0D2B01D0BDE8F0810A2004
:106EC000FCF750FF1128F8D10A20FCF74BFF1128DE
:106ED000F5D0F2E7112802463946DFD0B8F80000B5
:106EE000000440F00100FBF7DBFC2046FCF7E2F871
:106EF000DAE74FF0FF33DCE760AB0200142C002030
:106F000008B530B1032803D10220FFF781FB50B947
:106F100008BDFFF77DFB50B9FFF702FE50B9FFF740
:106F200059FE0028F4D0BDE80840FCF7C3B8FCF7D0
:106F3000C1F8F1E7FCF7BEF8F1E700BF08B5094971
:106F4000094801F051FB48B94021074801F064FBB2
:106F500000B908BDBDE80840FCF7ACB8FCF7AAF8DA
:106F6000F2E700BF2D6D02008436002070B5ACB092
:106F7000FCF79CFC08B1FCF79DF86A4D6A4B009346
:106F80000FCD04AC0FC495E80300684A684D029524
:106F900084E8030007234FF48074694604A8019431
:106FA0000394FCF74DFE08B1FCF784F80020FBF7D2
:106FB0003FFA08B1FCF77EF8FBF72CFA5D49032095
:106FC000FFF7BCFC08B1FCF775F804A90020FFF737
:106FD000B9FD08B1FCF76EF801F0B2FE08B1FCF79C
:106FE00069F8002304A90120049301F0D7FF08B138
:106FF000FCF760F804A802F0A5F808B1FCF75AF80D
:107000009DF800304C48012262F3030362F307133A
:107010008DF8003002F084F9474982B26846FFF7E4
:10702000CDFD08B1FCF746F80822002104A802F0C3
:107030004EF9424B049304A84FF0C8730593FFF731
:10704000BBFD08B1FCF736F8FFF778FF00210422FA
:1070500004A802F03CF93A4B3A48049304A901F021
:1070600047FD08B1FCF726F8A022002104A802F091
:107070002EF90225002405210123334E334A8DF8D1
:1070800010508DF812404025B4248DF8131030486C
:10709000ADF85C3004A98DF88C30189626952794AD
:1070A0002A9200F039FF08B1FCF704F801212848C2
:1070B00000F02EFF1C22002104A802F008F94FF472
:1070C000203600234FF4702503242249224A0493DA
:1070D00004A8ADF81E308DF82030059606958DF881
:1070E0001C4009910A9201F0A3F908B1FBF7E2FFF5
:1070F0001A4802F0F5F81A4B1A491888000440F0B3
:107100000300FBF70DFB0321114800F0B5FF28B980
:10711000FBF7FAF9FFF760FD0028F9D0FBF7CAFF8B
:10712000F6E700BFE8AA0200B4360020096E0200AC
:10713000B4370020996D020038AB020010003C000B
:10714000896E0200983600202C2A0020016F020070
:10715000AC350020756D0200DD6B020044AB02000F
:10716000142C002054AB02002DE9F84F4400DFF846
:107170007CA126180AEBC6068146D6F82C80B8F109
:10718000010F8B46174661D038D3B8F1020F30D1CA
:1071900000F1010909EB4909756A4FEAC9094FF085
:1071A00000081CE0326A641BBC420AEB090123465A
:1071B000A2EB050428BF3B469C42486828BF1C46FA
:1071C00028445946224602F077F8336A25449D4206
:1071D00008BF00253F1BA044A34475620BD0B36ACF
:1071E000AB4203F1FF34DDD8326A1344013B5C1B30
:1071F000DAE74FF000084046BDE8F88FB36A756AD9
:10720000AB429CBF326A9B18013B5B1B9F42F2D88A
:1072100004440AEBC40400F10109266A761B09EB59
:107220004909B7420AEBC90A56D3DAF804003246D4
:107230002844BD1B02F040F8DAF804000BEB06010D
:107240002A4602F039F8B8466562D4E7B36A756A2F
:10725000AB4226D903F1FF38366AA8EB0508B845DA
:1072600028BFB846761BB04523D309F1010707EBC9
:1072700047070AEBC707A1447868324659462844B5
:107280000AEBC90AA8EB060502F016F878680BEBC2
:1072900006012A4602F010F8CAF824504046BDE81C
:1072A000F88F366A03EB060808F1FF38A8EB0508EB
:1072B000D5E709F1010303EB43030AEBC303A14440
:1072C00058680AEBC90A284459464246454401F029
:1072D000F3FFCAF824508EE7DAF804003A4628444F
:1072E0003D4401F0E9FFB846656284E7F03B0020C9
:1072F000F8B5114C114B124AE3614FF400750023AD
:10730000104FA36210266362E362A3656365E365C1
:107310000D492562A2610225A264E01DE76426658D
:107320002561656101F0F4FF2046084901F0F0FF96
:107330002023A371F8BD00BFF03B0020C43800201B
:107340008CAB0200B438002098AB02009CAB02006A
:107350006DDF704772DF704779DF70477DDF704700
:1073600064DF70472DE9F04F85B00488DDF8388080
:10737000BDF83CA0B8F800500195002C57D09946B4
:10738000002317468B4605461C4603E02A88013435
:10739000A24228DD6A6852F82400039000220DF111
:1073A0000B0103A8FFF7DCFF064630BB9DF80B205E
:1073B000BA42EBD12BB3B8F80020D31953451BDCEC
:1073C0004A440DF10B0103A80123FFF7C9FF98BB45
:1073D000B8F800109DF80B200A44A8F800202A886D
:1073E0000134A242D6DC13B3B8F80030019A013B55
:1073F0009B1A9BB2FF2B17D90C26304605B0BDE86F
:10740000F08FB8F800305A1C3B440233534592B217
:10741000F2DCA8F8002009F802B0B8F80020013228
:1074200092B2A8F80020CBE709F80230E5E7002681
:10743000304605B0BDE8F08F0646304605B0BDE8E1
:10744000F08F00BF2DE9F04700231788138090F8D4
:107450002D3084B0144605460E46002B49D1AA783B
:10746000002A70D1EA78002A2ED16A68A2B1D91C0C
:10747000B94225D8022192F90020F1542388013322
:107480009BB20A212380F154238801339BB22380CD
:10749000F2542388013323802B89002B40F02A816A
:1074A0002B8A002B40F03F812B8B002B40F0548126
:1074B0002A6A002A00F0A78021888B1DBB4262D96E
:1074C0000C2004B0BDE8F087D91CB942F8D80221DD
:1074D000F154238801339BB201212380F154238886
:1074E0000B449BB22380F25423880B449BB223802D
:1074F000BBE7082FE4D902A8FFF72AFF0028E0D154
:1075000013880822CA54238801339BB21B2223808C
:10751000CA542088013080B22080062208440DF130
:10752000090101F0C9FE23889DF8082006339BB2AB
:1075300012F0FE0218BF01222380F2542388013387
:107540009BB223808BE70433BB42B9D802A8FFF774
:1075500003FF0028B5D12388BDF808200321F1548A
:10756000238801339BB219212380F15423880133EE
:107570009BB2F1182380F254120A4A702388023316
:107580009BB223806EE71388052B40F2AF806FF427
:10759000486803EB080080B24FF27D3E704540F230
:1075A000A5805088052840F2A1806FF4486C84447F
:1075B0001FFA8CFCF44540F299804FF6FF7E73452C
:1075C00004D0704502D0834200F2908005237354AA
:1075D000238801339BB212212380F1542388013385
:1075E0009BB223801188F1543344090A59702388CF
:1075F00002339BB223805288F2543344120A5A70E9
:10760000238802332380D5F82480B8F1000F30D0CE
:10761000B8F8041020888A1C831C1344BB423FF630
:107620004FAFFE2A3FF64CAF03313154238801336C
:107630009BB2FF222380F254238801339BB2238024
:10764000B8F80020F2543344120A5A7020880230ED
:1076500080B22080B8F804205AB1D8F80810002968
:1076600044D0304401F028FEB8F8042023881344A5
:10767000238095F82C30002B40F087802878002854
:107680003FF41FAF2B88012B30D023889A1CBA42BD
:107690003FF616AF012805D16978023119448F42AF
:1076A000FFF40EAF023FFB1A04A99BB221F8083D7C
:1076B000B018FFF753FE00287FF403AF2A78022AA0
:1076C00000F0AF80012A00F0B4800821FE2B3FF6C5
:1076D000F7AE22885D1CB5542288013292B2228016
:1076E000B1542288013213442380EAE6072004B013
:1076F000BDE8F08705F1080802228DE890004046B9
:1077000011463346FFF72EFE00287FF4DAAE8DE8EF
:1077100090004046334610220621FFF723FE002842
:107720003FF4BEAECDE605F110088DE8900040466E
:10773000334602220321FFF715FE00287FF4C1AE75
:107740008DE890004046334610220721FFF70AFEDD
:1077500000283FF4A9AEB4E605F118088DE89000C2
:107760004046334602221421FFF7FCFD00287FF437
:10777000A8AE8DE890004046334610221521FFF751
:10778000F1FD00283FF494AE9BE6D5F82880B8F1CF
:10779000000FABD0B8F804200232FE2A3FF690AEBC
:1077A00023884FF000094FF0160A0132F254238863
:1077B00001339BB2238006F803A0238801339BB2D8
:1077C0002380B8F80020F2543344120A5A702388F8
:1077D00002339BB22380B8F80410F0180A4661B156
:1077E000D8F808301946002B80D001F065FDB8F8B4
:1077F0000420238813449BB2238009F1010995F8E2
:107800002C205FFA89F94A4509EB49087FF636AF23
:10781000AA6A02EB8808B8F804200232FE2AC4D90A
:107820004EE6BDF808209342FFF44FAF13460921FE
:107830004CE76A789342FFF448AF1346082145E7C6
:107840002DE9F04395B01F230D46ADF80E300446E8
:10785000002800F08480C27853077CD590F82D3042
:107860000021ADF80C10002B40F0DB8183780CAFC9
:10787000002B40F017821946032014AE31445F1CE0
:10788000023316FA87F74FF0020E16FA83F601F864
:1078900040EC83B2012107F8401CADF80C3006F82B
:1078A000402C6668002E00F08C80D81C1F2874D9EC
:1078B0000C2015B0BDE8F083A76A002F4BD0BA8822
:1078C0000232FE2AF4D8BDF80C304FF0000804AEA6
:1078D0004FF016091AE001F0EFFCBDF80C30BA8841
:1078E00094F82C1013449BB2ADF80C3008F1010849
:1078F0005FFA88F8884508EB480280F0F080A76AB4
:1079000007EB8207BA880232FE2AD1D80DF1500E59
:107910009E44581C01320DF1500C0EF8402C1CFAFC
:1079200080F09A1C92B200F8409CADF80C20388888
:10793000B0543244000A50700433B7F804E09BB2EC
:107940007246F018ADF80C30BEF1000FCED0BB6817
:107950001946002BBFD1072015B0BDE8F083ADF864
:107960000C00ADB1EB78002BF5D128460CA90DF138
:107970000E02FFF767FD0028EED19DF80E300CAA2D
:1079800020469DF80C10FFF7E5FC15B0BDE8F0832C
:107990002B46ADF80E502A46F2E714AF591C9A1C3C
:1079A00017FA81F13B4417FA82F296F90060ADF8BC
:1079B0000C0002270A2003F8407C01F8400C02F872
:1079C000406C2389002B40F08F80238A002B40F0ED
:1079D000AB80238B002B40F0C780226A002A42D064
:1079E000BDF80C30991D1F293FF662AF108805289D
:1079F000B1D96FF4486C00EB0C06B6B24FF27D378C
:107A0000BE42A8D95688052EA5D96FF4486EB64453
:107A10001FFA8EFEBE459ED94FF6FF77B84203D0BF
:107A2000BE4201D0B04296D814A8C7185E1C10FA06
:107A300086F64FF0050E981C07F840EC80B212272E
:107A400006F8407CADF80C001788ADF80C1004AEB9
:107A50003118375404333F0A4F709BB25288F254A6
:107A60001E44120A7270676AA7B3B888BDF80C305A
:107A7000811C9A1C56181F2E3FF61AAFFE293FF69E
:107A800017AF14AE1E44591C0DF1500E1EFA81F1B1
:107A9000033006F8400C92B2FF2001F8400CADF81C
:107AA0000C20398804AEB018B154090A417004336F
:107AB000BA8898B2ADF80C0062B1B96800293FF4F9
:107AC0004AAF304401F0F8FBBDF80C30BA881344DB
:107AD000ADF80C3094F82C1000297FF4EDAE23782B
